{
  "_format": "hh-sol-artifact-1",
  "contractName": "Game",
  "sourceName": "contracts/Game.sol",
  "abi": [
    {
      "inputs": [
        {
          "internalType": "uint256[]",
          "name": "hp",
          "type": "uint256[]"
        },
        {
          "internalType": "uint256[]",
          "name": "xp",
          "type": "uint256[]"
        },
        {
          "internalType": "uint256[]",
          "name": "gold",
          "type": "uint256[]"
        },
        {
          "internalType": "uint256[]",
          "name": "maxHp",
          "type": "uint256[]"
        },
        {
          "internalType": "string[]",
          "name": "name",
          "type": "string[]"
        },
        {
          "internalType": "string[]",
          "name": "image",
          "type": "string[]"
        }
      ],
      "stateMutability": "nonpayable",
      "type": "constructor"
    },
    {
      "anonymous": false,
      "inputs": [
        {
          "indexed": true,
          "internalType": "address",
          "name": "owner",
          "type": "address"
        },
        {
          "indexed": true,
          "internalType": "address",
          "name": "approved",
          "type": "address"
        },
        {
          "indexed": true,
          "internalType": "uint256",
          "name": "tokenId",
          "type": "uint256"
        }
      ],
      "name": "Approval",
      "type": "event"
    },
    {
      "anonymous": false,
      "inputs": [
        {
          "indexed": true,
          "internalType": "address",
          "name": "owner",
          "type": "address"
        },
        {
          "indexed": true,
          "internalType": "address",
          "name": "operator",
          "type": "address"
        },
        {
          "indexed": false,
          "internalType": "bool",
          "name": "approved",
          "type": "bool"
        }
      ],
      "name": "ApprovalForAll",
      "type": "event"
    },
    {
      "anonymous": false,
      "inputs": [
        {
          "indexed": false,
          "internalType": "uint256",
          "name": "newBossHp",
          "type": "uint256"
        },
        {
          "indexed": false,
          "internalType": "uint256",
          "name": "newPlayerHp",
          "type": "uint256"
        }
      ],
      "name": "AttackComplete",
      "type": "event"
    },
    {
      "anonymous": false,
      "inputs": [
        {
          "indexed": false,
          "internalType": "address",
          "name": "sender",
          "type": "address"
        },
        {
          "indexed": false,
          "internalType": "uint256",
          "name": "tokenId",
          "type": "uint256"
        },
        {
          "indexed": false,
          "internalType": "uint256",
          "name": "characterIndex",
          "type": "uint256"
        }
      ],
      "name": "CharacterNFTMinted",
      "type": "event"
    },
    {
      "anonymous": false,
      "inputs": [
        {
          "indexed": false,
          "internalType": "uint256",
          "name": "tokenId",
          "type": "uint256"
        }
      ],
      "name": "PlayerContinued",
      "type": "event"
    },
    {
      "anonymous": false,
      "inputs": [
        {
          "indexed": true,
          "internalType": "address",
          "name": "from",
          "type": "address"
        },
        {
          "indexed": true,
          "internalType": "address",
          "name": "to",
          "type": "address"
        },
        {
          "indexed": true,
          "internalType": "uint256",
          "name": "tokenId",
          "type": "uint256"
        }
      ],
      "name": "Transfer",
      "type": "event"
    },
    {
      "inputs": [
        {
          "internalType": "address",
          "name": "to",
          "type": "address"
        },
        {
          "internalType": "uint256",
          "name": "tokenId",
          "type": "uint256"
        }
      ],
      "name": "approve",
      "outputs": [],
      "stateMutability": "nonpayable",
      "type": "function"
    },
    {
      "inputs": [],
      "name": "attackBoss",
      "outputs": [],
      "stateMutability": "nonpayable",
      "type": "function"
    },
    {
      "inputs": [
        {
          "internalType": "address",
          "name": "owner",
          "type": "address"
        }
      ],
      "name": "balanceOf",
      "outputs": [
        {
          "internalType": "uint256",
          "name": "",
          "type": "uint256"
        }
      ],
      "stateMutability": "view",
      "type": "function"
    },
    {
      "inputs": [],
      "name": "continuePlayer",
      "outputs": [],
      "stateMutability": "nonpayable",
      "type": "function"
    },
    {
      "inputs": [
        {
          "internalType": "uint256",
          "name": "tokenId",
          "type": "uint256"
        }
      ],
      "name": "getApproved",
      "outputs": [
        {
          "internalType": "address",
          "name": "",
          "type": "address"
        }
      ],
      "stateMutability": "view",
      "type": "function"
    },
    {
      "inputs": [],
      "name": "getBoss",
      "outputs": [
        {
          "components": [
            {
              "internalType": "uint256",
              "name": "hp",
              "type": "uint256"
            },
            {
              "internalType": "uint256",
              "name": "xp",
              "type": "uint256"
            },
            {
              "internalType": "uint256",
              "name": "gold",
              "type": "uint256"
            },
            {
              "internalType": "uint256",
              "name": "maxHp",
              "type": "uint256"
            },
            {
              "internalType": "string",
              "name": "name",
              "type": "string"
            },
            {
              "internalType": "string",
              "name": "image",
              "type": "string"
            }
          ],
          "internalType": "struct Game.Character",
          "name": "",
          "type": "tuple"
        }
      ],
      "stateMutability": "view",
      "type": "function"
    },
    {
      "inputs": [],
      "name": "getCharacterTypes",
      "outputs": [
        {
          "components": [
            {
              "internalType": "uint256",
              "name": "hp",
              "type": "uint256"
            },
            {
              "internalType": "uint256",
              "name": "xp",
              "type": "uint256"
            },
            {
              "internalType": "uint256",
              "name": "gold",
              "type": "uint256"
            },
            {
              "internalType": "uint256",
              "name": "maxHp",
              "type": "uint256"
            },
            {
              "internalType": "string",
              "name": "name",
              "type": "string"
            },
            {
              "internalType": "string",
              "name": "image",
              "type": "string"
            }
          ],
          "internalType": "struct Game.Character[]",
          "name": "",
          "type": "tuple[]"
        }
      ],
      "stateMutability": "view",
      "type": "function"
    },
    {
      "inputs": [],
      "name": "getPlayer",
      "outputs": [
        {
          "components": [
            {
              "internalType": "uint256",
              "name": "hp",
              "type": "uint256"
            },
            {
              "internalType": "uint256",
              "name": "xp",
              "type": "uint256"
            },
            {
              "internalType": "uint256",
              "name": "gold",
              "type": "uint256"
            },
            {
              "internalType": "uint256",
              "name": "maxHp",
              "type": "uint256"
            },
            {
              "internalType": "string",
              "name": "name",
              "type": "string"
            },
            {
              "internalType": "string",
              "name": "image",
              "type": "string"
            }
          ],
          "internalType": "struct Game.Character",
          "name": "",
          "type": "tuple"
        }
      ],
      "stateMutability": "view",
      "type": "function"
    },
    {
      "inputs": [
        {
          "internalType": "address",
          "name": "owner",
          "type": "address"
        },
        {
          "internalType": "address",
          "name": "operator",
          "type": "address"
        }
      ],
      "name": "isApprovedForAll",
      "outputs": [
        {
          "internalType": "bool",
          "name": "",
          "type": "bool"
        }
      ],
      "stateMutability": "view",
      "type": "function"
    },
    {
      "inputs": [
        {
          "internalType": "uint256",
          "name": "characterType",
          "type": "uint256"
        }
      ],
      "name": "mintPlayer",
      "outputs": [
        {
          "internalType": "uint256",
          "name": "tokenId",
          "type": "uint256"
        }
      ],
      "stateMutability": "nonpayable",
      "type": "function"
    },
    {
      "inputs": [],
      "name": "name",
      "outputs": [
        {
          "internalType": "string",
          "name": "",
          "type": "string"
        }
      ],
      "stateMutability": "view",
      "type": "function"
    },
    {
      "inputs": [
        {
          "internalType": "uint256",
          "name": "tokenId",
          "type": "uint256"
        }
      ],
      "name": "ownerOf",
      "outputs": [
        {
          "internalType": "address",
          "name": "",
          "type": "address"
        }
      ],
      "stateMutability": "view",
      "type": "function"
    },
    {
      "inputs": [
        {
          "internalType": "address",
          "name": "from",
          "type": "address"
        },
        {
          "internalType": "address",
          "name": "to",
          "type": "address"
        },
        {
          "internalType": "uint256",
          "name": "tokenId",
          "type": "uint256"
        }
      ],
      "name": "safeTransferFrom",
      "outputs": [],
      "stateMutability": "nonpayable",
      "type": "function"
    },
    {
      "inputs": [
        {
          "internalType": "address",
          "name": "from",
          "type": "address"
        },
        {
          "internalType": "address",
          "name": "to",
          "type": "address"
        },
        {
          "internalType": "uint256",
          "name": "tokenId",
          "type": "uint256"
        },
        {
          "internalType": "bytes",
          "name": "_data",
          "type": "bytes"
        }
      ],
      "name": "safeTransferFrom",
      "outputs": [],
      "stateMutability": "nonpayable",
      "type": "function"
    },
    {
      "inputs": [
        {
          "internalType": "address",
          "name": "operator",
          "type": "address"
        },
        {
          "internalType": "bool",
          "name": "approved",
          "type": "bool"
        }
      ],
      "name": "setApprovalForAll",
      "outputs": [],
      "stateMutability": "nonpayable",
      "type": "function"
    },
    {
      "inputs": [
        {
          "internalType": "bytes4",
          "name": "interfaceId",
          "type": "bytes4"
        }
      ],
      "name": "supportsInterface",
      "outputs": [
        {
          "internalType": "bool",
          "name": "",
          "type": "bool"
        }
      ],
      "stateMutability": "view",
      "type": "function"
    },
    {
      "inputs": [],
      "name": "symbol",
      "outputs": [
        {
          "internalType": "string",
          "name": "",
          "type": "string"
        }
      ],
      "stateMutability": "view",
      "type": "function"
    },
    {
      "inputs": [
        {
          "internalType": "uint256",
          "name": "tokenId",
          "type": "uint256"
        }
      ],
      "name": "tokenURI",
      "outputs": [
        {
          "internalType": "string",
          "name": "",
          "type": "string"
        }
      ],
      "stateMutability": "view",
      "type": "function"
    },
    {
      "inputs": [
        {
          "internalType": "address",
          "name": "from",
          "type": "address"
        },
        {
          "internalType": "address",
          "name": "to",
          "type": "address"
        },
        {
          "internalType": "uint256",
          "name": "tokenId",
          "type": "uint256"
        }
      ],
      "name": "transferFrom",
      "outputs": [],
      "stateMutability": "nonpayable",
      "type": "function"
    }
  ],
  "bytecode": "0x608060405260006010553480156200001657600080fd5b506040516200596e3803806200596e83398181016040528101906200003c9190620009f5565b6040518060400160405280600f81526020017f426f737320456e636f756e7465727300000000000000000000000000000000008152506040518060400160405280600481526020017f424f5353000000000000000000000000000000000000000000000000000000008152508160009080519060200190620000c09291906200075d565b508060019080519060200190620000d99291906200075d565b50505060005b60018751620000ef919062000cae565b8110156200044857600d6040518060c001604052808984815181106200013e577f4e487b7100000000000000000000000000000000000000000000000000000000600052603260045260246000fd5b6020026020010151815260200188848151811062000185577f4e487b7100000000000000000000000000000000000000000000000000000000600052603260045260246000fd5b60200260200101518152602001878481518110620001cc577f4e487b7100000000000000000000000000000000000000000000000000000000600052603260045260246000fd5b6020026020010151815260200186848151811062000213577f4e487b7100000000000000000000000000000000000000000000000000000000600052603260045260246000fd5b602002602001015181526020018584815181106200025a577f4e487b7100000000000000000000000000000000000000000000000000000000600052603260045260246000fd5b60200260200101518152602001848481518110620002a1577f4e487b7100000000000000000000000000000000000000000000000000000000600052603260045260246000fd5b602002602001015181525090806001815401808255809150506001900390600052602060002090600602016000909190919091506000820151816000015560208201518160010155604082015181600201556060820151816003015560808201518160040190805190602001906200031b9291906200075d565b5060a08201518160050190805190602001906200033a9291906200075d565b505050620004326040518060600160405280602c815260200162005942602c913984838151811062000395577f4e487b7100000000000000000000000000000000000000000000000000000000600052603260045260246000fd5b6020026020010151898481518110620003d7577f4e487b7100000000000000000000000000000000000000000000000000000000600052603260045260246000fd5b602002602001015185858151811062000419577f4e487b7100000000000000000000000000000000000000000000000000000000600052603260045260246000fd5b60200260200101516200068860201b62001b161760201c565b80806200043f9062000d95565b915050620000df565b506000600187516200045b919062000cae565b90506040518060c00160405280888381518110620004a2577f4e487b7100000000000000000000000000000000000000000000000000000000600052603260045260246000fd5b60200260200101518152602001878381518110620004e9577f4e487b7100000000000000000000000000000000000000000000000000000000600052603260045260246000fd5b6020026020010151815260200186838151811062000530577f4e487b7100000000000000000000000000000000000000000000000000000000600052603260045260246000fd5b6020026020010151815260200185838151811062000577577f4e487b7100000000000000000000000000000000000000000000000000000000600052603260045260246000fd5b60200260200101518152602001848381518110620005be577f4e487b7100000000000000000000000000000000000000000000000000000000600052603260045260246000fd5b6020026020010151815260200183838151811062000605577f4e487b7100000000000000000000000000000000000000000000000000000000600052603260045260246000fd5b60200260200101518152506007600082015181600001556020820151816001015560408201518160020155606082015181600301556080820151816004019080519060200190620006589291906200075d565b5060a0820151816005019080519060200190620006779291906200075d565b509050505050505050505062000e9b565b6200072e84848484604051602401620006a5949392919062000b73565b6040516020818303038152906040527f8d142cdd000000000000000000000000000000000000000000000000000000007bffffffffffffffffffffffffffffffffffffffffffffffffffffffff19166020820180517bffffffffffffffffffffffffffffffffffffffffffffffffffffffff83818316178352505050506200073460201b60201c565b50505050565b60008151905060006a636f6e736f6c652e6c6f679050602083016000808483855afa5050505050565b8280546200076b9062000d29565b90600052602060002090601f0160209004810192826200078f5760008555620007db565b82601f10620007aa57805160ff1916838001178555620007db565b82800160010185558215620007db579182015b82811115620007da578251825591602001919060010190620007bd565b5b509050620007ea9190620007ee565b5090565b5b8082111562000809576000816000905550600101620007ef565b5090565b6000620008246200081e8462000bfe565b62000bd5565b905080838252602082019050828560208602820111156200084457600080fd5b60005b858110156200089357815167ffffffffffffffff8111156200086857600080fd5b808601620008778982620009b1565b8552602085019450602084019350505060018101905062000847565b5050509392505050565b6000620008b4620008ae8462000c2d565b62000bd5565b90508083825260208201905082856020860282011115620008d457600080fd5b60005b85811015620009085781620008ed8882620009de565b845260208401935060208301925050600181019050620008d7565b5050509392505050565b600062000929620009238462000c5c565b62000bd5565b9050828152602081018484840111156200094257600080fd5b6200094f84828562000cf3565b509392505050565b600082601f8301126200096957600080fd5b81516200097b8482602086016200080d565b91505092915050565b600082601f8301126200099657600080fd5b8151620009a88482602086016200089d565b91505092915050565b600082601f830112620009c357600080fd5b8151620009d584826020860162000912565b91505092915050565b600081519050620009ef8162000e81565b92915050565b60008060008060008060c0878903121562000a0f57600080fd5b600087015167ffffffffffffffff81111562000a2a57600080fd5b62000a3889828a0162000984565b965050602087015167ffffffffffffffff81111562000a5657600080fd5b62000a6489828a0162000984565b955050604087015167ffffffffffffffff81111562000a8257600080fd5b62000a9089828a0162000984565b945050606087015167ffffffffffffffff81111562000aae57600080fd5b62000abc89828a0162000984565b935050608087015167ffffffffffffffff81111562000ada57600080fd5b62000ae889828a0162000957565b92505060a087015167ffffffffffffffff81111562000b0657600080fd5b62000b1489828a0162000957565b9150509295509295509295565b600062000b2e8262000c92565b62000b3a818562000c9d565b935062000b4c81856020860162000cf3565b62000b578162000e70565b840191505092915050565b62000b6d8162000ce9565b82525050565b6000608082019050818103600083015262000b8f818762000b21565b9050818103602083015262000ba5818662000b21565b905062000bb6604083018562000b62565b818103606083015262000bca818462000b21565b905095945050505050565b600062000be162000bf4565b905062000bef828262000d5f565b919050565b6000604051905090565b600067ffffffffffffffff82111562000c1c5762000c1b62000e41565b5b602082029050602081019050919050565b600067ffffffffffffffff82111562000c4b5762000c4a62000e41565b5b602082029050602081019050919050565b600067ffffffffffffffff82111562000c7a5762000c7962000e41565b5b62000c858262000e70565b9050602081019050919050565b600081519050919050565b600082825260208201905092915050565b600062000cbb8262000ce9565b915062000cc88362000ce9565b92508282101562000cde5762000cdd62000de3565b5b828203905092915050565b6000819050919050565b60005b8381101562000d1357808201518184015260208101905062000cf6565b8381111562000d23576000848401525b50505050565b6000600282049050600182168062000d4257607f821691505b6020821081141562000d595762000d5862000e12565b5b50919050565b62000d6a8262000e70565b810181811067ffffffffffffffff8211171562000d8c5762000d8b62000e41565b5b80604052505050565b600062000da28262000ce9565b91507fffffffffffffffffffffffffffffffffffffffffffffffffffffffffffffffff82141562000dd85762000dd762000de3565b5b600182019050919050565b7f4e487b7100000000000000000000000000000000000000000000000000000000600052601160045260246000fd5b7f4e487b7100000000000000000000000000000000000000000000000000000000600052602260045260246000fd5b7f4e487b7100000000000000000000000000000000000000000000000000000000600052604160045260246000fd5b6000601f19601f8301169050919050565b62000e8c8162000ce9565b811462000e9857600080fd5b50565b614a978062000eab6000396000f3fe608060405234801561001057600080fd5b50600436106101215760003560e01c806367a2f53e116100ad578063b88d4fde11610071578063b88d4fde14610308578063c76d9e7d14610324578063c87b56dd14610342578063d4f24c5b14610372578063e985e9c51461037c57610121565b806367a2f53e1461027657806370a082311461029457806395d89b41146102c4578063a22cb465146102e2578063a5d34fc6146102fe57610121565b806323b872dd116100f457806323b872dd146101c05780633308f42d146101dc5780633de7439f146101fa57806342842e0e1461022a5780636352211e1461024657610121565b806301ffc9a71461012657806306fdde0314610156578063081812fc14610174578063095ea7b3146101a4575b600080fd5b610140600480360381019061013b9190613018565b6103ac565b60405161014d9190613a41565b60405180910390f35b61015e61048e565b60405161016b9190613a5c565b60405180910390f35b61018e6004803603810190610189919061306a565b610520565b60405161019b9190613981565b60405180910390f35b6101be60048036038101906101b99190612fdc565b6105a5565b005b6101da60048036038101906101d59190612ed6565b6106bd565b005b6101e461071d565b6040516101f19190613de5565b60405180910390f35b610214600480360381019061020f919061306a565b6108d9565b6040516102219190613e07565b60405180910390f35b610244600480360381019061023f9190612ed6565b610a89565b005b610260600480360381019061025b919061306a565b610aa9565b60405161026d9190613981565b60405180910390f35b61027e610b5b565b60405161028b9190613a1f565b60405180910390f35b6102ae60048036038101906102a99190612e71565b610d06565b6040516102bb9190613e07565b60405180910390f35b6102cc610dbe565b6040516102d99190613a5c565b60405180910390f35b6102fc60048036038101906102f79190612fa0565b610e50565b005b610306610e66565b005b610322600480360381019061031d9190612f25565b611061565b005b61032c6110c3565b6040516103399190613de5565b60405180910390f35b61035c6004803603810190610357919061306a565b611229565b6040516103699190613a5c565b60405180910390f35b61037a61159f565b005b61039660048036038101906103919190612e9a565b611a82565b6040516103a39190613a41565b60405180910390f35b60007f80ac58cd000000000000000000000000000000000000000000000000000000007bffffffffffffffffffffffffffffffffffffffffffffffffffffffff1916827bffffffffffffffffffffffffffffffffffffffffffffffffffffffff1916148061047757507f5b5e139f000000000000000000000000000000000000000000000000000000007bffffffffffffffffffffffffffffffffffffffffffffffffffffffff1916827bffffffffffffffffffffffffffffffffffffffffffffffffffffffff1916145b80610487575061048682611bb8565b5b9050919050565b60606000805461049d906140f9565b80601f01602080910402602001604051908101604052809291908181526020018280546104c9906140f9565b80156105165780601f106104eb57610100808354040283529160200191610516565b820191906000526020600020905b8154815290600101906020018083116104f957829003601f168201915b5050505050905090565b600061052b82611c22565b61056a576040517f08c379a000000000000000000000000000000000000000000000000000000000815260040161056190613d45565b60405180910390fd5b6004600083815260200190815260200160002060009054906101000a900473ffffffffffffffffffffffffffffffffffffffff169050919050565b60006105b082610aa9565b90508073ffffffffffffffffffffffffffffffffffffffff168373ffffffffffffffffffffffffffffffffffffffff161415610621576040517f08c379a000000000000000000000000000000000000000000000000000000000815260040161061890613d85565b60405180910390fd5b8073ffffffffffffffffffffffffffffffffffffffff16610640611c8e565b73ffffffffffffffffffffffffffffffffffffffff16148061066f575061066e81610669611c8e565b611a82565b5b6106ae576040517f08c379a00000000000000000000000000000000000000000000000000000000081526004016106a590613cc5565b60405180910390fd5b6106b88383611c96565b505050565b6106ce6106c8611c8e565b82611d4f565b61070d576040517f08c379a000000000000000000000000000000000000000000000000000000000815260040161070490613da5565b60405180910390fd5b610718838383611e2d565b505050565b610725612cc0565b6000600f60003373ffffffffffffffffffffffffffffffffffffffff1673ffffffffffffffffffffffffffffffffffffffff168152602001908152602001600020549050600e60008281526020019081526020016000206040518060c0016040529081600082015481526020016001820154815260200160028201548152602001600382015481526020016004820180546107bf906140f9565b80601f01602080910402602001604051908101604052809291908181526020018280546107eb906140f9565b80156108385780601f1061080d57610100808354040283529160200191610838565b820191906000526020600020905b81548152906001019060200180831161081b57829003601f168201915b50505050508152602001600582018054610851906140f9565b80601f016020809104026020016040519081016040528092919081815260200182805461087d906140f9565b80156108ca5780601f1061089f576101008083540402835291602001916108ca565b820191906000526020600020905b8154815290600101906020018083116108ad57829003601f168201915b50505050508152505091505090565b6000806108e66006612089565b90506108f23382612097565b6109316040518060400160405280601f81526020017f4d696e74656420506c61796572204e465420772f20746f6b656e496420257300815250826120b5565b600d838154811061096b577f4e487b7100000000000000000000000000000000000000000000000000000000600052603260045260246000fd5b9060005260206000209060060201600e60008381526020019081526020016000206000820154816000015560018201548160010155600282015481600201556003820154816003015560048201816004019080546109c8906140f9565b6109d3929190612cf6565b5060058201816005019080546109e8906140f9565b6109f3929190612cf6565b5090505080600f60003373ffffffffffffffffffffffffffffffffffffffff1673ffffffffffffffffffffffffffffffffffffffff16815260200190815260200160002081905550610a456006612151565b7f4bc303fd457a97b4691b9af582ce71868a3d258638c8d4f8c60988a0f0bfb8cd338285604051610a78939291906139e8565b60405180910390a180915050919050565b610aa483838360405180602001604052806000815250611061565b505050565b6000806002600084815260200190815260200160002060009054906101000a900473ffffffffffffffffffffffffffffffffffffffff169050600073ffffffffffffffffffffffffffffffffffffffff168173ffffffffffffffffffffffffffffffffffffffff161415610b52576040517f08c379a0000000000000000000000000000000000000000000000000000000008152600401610b4990613d05565b60405180910390fd5b80915050919050565b6060600d805480602002602001604051908101604052809291908181526020016000905b82821015610cfd57838290600052602060002090600602016040518060c001604052908160008201548152602001600182015481526020016002820154815260200160038201548152602001600482018054610bda906140f9565b80601f0160208091040260200160405190810160405280929190818152602001828054610c06906140f9565b8015610c535780601f10610c2857610100808354040283529160200191610c53565b820191906000526020600020905b815481529060010190602001808311610c3657829003601f168201915b50505050508152602001600582018054610c6c906140f9565b80601f0160208091040260200160405190810160405280929190818152602001828054610c98906140f9565b8015610ce55780601f10610cba57610100808354040283529160200191610ce5565b820191906000526020600020905b815481529060010190602001808311610cc857829003601f168201915b50505050508152505081526020019060010190610b7f565b50505050905090565b60008073ffffffffffffffffffffffffffffffffffffffff168273ffffffffffffffffffffffffffffffffffffffff161415610d77576040517f08c379a0000000000000000000000000000000000000000000000000000000008152600401610d6e90613ce5565b60405180910390fd5b600360008373ffffffffffffffffffffffffffffffffffffffff1673ffffffffffffffffffffffffffffffffffffffff168152602001908152602001600020549050919050565b606060018054610dcd906140f9565b80601f0160208091040260200160405190810160405280929190818152602001828054610df9906140f9565b8015610e465780601f10610e1b57610100808354040283529160200191610e46565b820191906000526020600020905b815481529060010190602001808311610e2957829003601f168201915b5050505050905090565b610e62610e5b611c8e565b8383612167565b5050565b6000600f60003373ffffffffffffffffffffffffffffffffffffffff1673ffffffffffffffffffffffffffffffffffffffff1681526020019081526020016000205490506000600e60008381526020019081526020016000206040518060c001604052908160008201548152602001600182015481526020016002820154815260200160038201548152602001600482018054610f02906140f9565b80601f0160208091040260200160405190810160405280929190818152602001828054610f2e906140f9565b8015610f7b5780601f10610f5057610100808354040283529160200191610f7b565b820191906000526020600020905b815481529060010190602001808311610f5e57829003601f168201915b50505050508152602001600582018054610f94906140f9565b80601f0160208091040260200160405190810160405280929190818152602001828054610fc0906140f9565b801561100d5780601f10610fe25761010080835404028352916020019161100d565b820191906000526020600020905b815481529060010190602001808311610ff057829003601f168201915b505050505081525050905080606001518160000181815250507f619d26020cdc34c1a366cdfffe28f3f365db7f6e1343252d222d86b4f7362998826040516110559190613e07565b60405180910390a15050565b61107261106c611c8e565b83611d4f565b6110b1576040517f08c379a00000000000000000000000000000000000000000000000000000000081526004016110a890613da5565b60405180910390fd5b6110bd848484846122d4565b50505050565b6110cb612cc0565b60076040518060c001604052908160008201548152602001600182015481526020016002820154815260200160038201548152602001600482018054611110906140f9565b80601f016020809104026020016040519081016040528092919081815260200182805461113c906140f9565b80156111895780601f1061115e57610100808354040283529160200191611189565b820191906000526020600020905b81548152906001019060200180831161116c57829003601f168201915b505050505081526020016005820180546111a2906140f9565b80601f01602080910402602001604051908101604052809291908181526020018280546111ce906140f9565b801561121b5780601f106111f05761010080835404028352916020019161121b565b820191906000526020600020905b8154815290600101906020018083116111fe57829003601f168201915b505050505081525050905090565b606061123482611c22565b611273576040517f08c379a000000000000000000000000000000000000000000000000000000000815260040161126a90613c85565b60405180910390fd5b6000600e60008481526020019081526020016000206040518060c0016040529081600082015481526020016001820154815260200160028201548152602001600382015481526020016004820180546112cb906140f9565b80601f01602080910402602001604051908101604052809291908181526020018280546112f7906140f9565b80156113445780601f1061131957610100808354040283529160200191611344565b820191906000526020600020905b81548152906001019060200180831161132757829003601f168201915b5050505050815260200160058201805461135d906140f9565b80601f0160208091040260200160405190810160405280929190818152602001828054611389906140f9565b80156113d65780601f106113ab576101008083540402835291602001916113d6565b820191906000526020600020905b8154815290600101906020018083116113b957829003601f168201915b505050505081525050905060006113f08260000151612330565b905060006114018360200151612330565b905060006114128460400151612330565b905060006114238560600151612330565b90506000856080015160405160200161143c91906137d3565b604051602081830303815290604052905060008660a00151604051602001611464919061382d565b604051602081830303815290604052905060008660405160200161148891906137a6565b60405160208183030381529060405290506000846040516020016114ac9190613779565b60405160208183030381529060405290506000876040516020016114d09190613800565b60405160208183030381529060405290506000876040516020016114f4919061385a565b604051602081830303815290604052905060008483838660405160200161151e94939291906138ce565b6040516020818303038152906040529050600087878360405160200161154693929190613887565b60405160208183030381529060405290506000611562826124dd565b90506000816040516020016115779190613922565b6040516020818303038152906040529050809f50505050505050505050505050505050919050565b6000600f60003373ffffffffffffffffffffffffffffffffffffffff1673ffffffffffffffffffffffffffffffffffffffff1681526020019081526020016000205490506000600e60008381526020019081526020016000206040518060c00160405290816000820154815260200160018201548152602001600282015481526020016003820154815260200160048201805461163b906140f9565b80601f0160208091040260200160405190810160405280929190818152602001828054611667906140f9565b80156116b45780601f10611689576101008083540402835291602001916116b4565b820191906000526020600020905b81548152906001019060200180831161169757829003601f168201915b505050505081526020016005820180546116cd906140f9565b80601f01602080910402602001604051908101604052809291908181526020018280546116f9906140f9565b80156117465780601f1061171b57610100808354040283529160200191611746565b820191906000526020600020905b81548152906001019060200180831161172957829003601f168201915b5050505050815250509050611781604051806060016040528060288152602001614a3a6028913982608001518360000151846020015161267c565b6118596040518060400160405280601b81526020017f426f73732025732068617320257320485020616e642025732058500000000000815250600760040180546117ca906140f9565b80601f01602080910402602001604051908101604052809291908181526020018280546117f6906140f9565b80156118435780601f1061181857610100808354040283529160200191611843565b820191906000526020600020905b81548152906001019060200180831161182657829003601f168201915b505050505060076000015460076001015461267c565b60008160000151116118a0576040517f08c379a000000000000000000000000000000000000000000000000000000000815260040161189790613dc5565b60405180910390fd5b6000600760000154116118e8576040517f08c379a00000000000000000000000000000000000000000000000000000000081526004016118df90613be5565b60405180910390fd5b60006118f261271e565b905080600760000154101561191157600060076000018190555061192c565b80600760000154611922919061400f565b6007600001819055505b611954604051806060016040528060228152602001614982602291398260076000015461277e565b600061195e61271e565b9050808360000151101561197c576000836000018181525050611996565b80836000015161198c919061400f565b8360000181815250505b6119bd604051806060016040528060248152602001614a166024913982856000015161277e565b60006007600001541415611a3a5760076001015483602001516119e09190613f2e565b83602001818152505060076002015483604001516119fe9190613f2e565b836040018181525050611a396040518060600160405280603281526020016149e460329139600760010154856020015160076002015461281d565b5b7f838ab28464562786a6c4ab2311964b82fa60bd9b14aa7e856af1f3f18d41a4146007600001548460000151604051611a74929190613e22565b60405180910390a150505050565b6000600560008473ffffffffffffffffffffffffffffffffffffffff1673ffffffffffffffffffffffffffffffffffffffff16815260200190815260200160002060008373ffffffffffffffffffffffffffffffffffffffff1673ffffffffffffffffffffffffffffffffffffffff16815260200190815260200160002060009054906101000a900460ff16905092915050565b611bb284848484604051602401611b309493929190613a7e565b6040516020818303038152906040527f8d142cdd000000000000000000000000000000000000000000000000000000007bffffffffffffffffffffffffffffffffffffffffffffffffffffffff19166020820180517bffffffffffffffffffffffffffffffffffffffffffffffffffffffff83818316178352505050506128bf565b50505050565b60007f01ffc9a7000000000000000000000000000000000000000000000000000000007bffffffffffffffffffffffffffffffffffffffffffffffffffffffff1916827bffffffffffffffffffffffffffffffffffffffffffffffffffffffff1916149050919050565b60008073ffffffffffffffffffffffffffffffffffffffff166002600084815260200190815260200160002060009054906101000a900473ffffffffffffffffffffffffffffffffffffffff1673ffffffffffffffffffffffffffffffffffffffff1614159050919050565b600033905090565b816004600083815260200190815260200160002060006101000a81548173ffffffffffffffffffffffffffffffffffffffff021916908373ffffffffffffffffffffffffffffffffffffffff160217905550808273ffffffffffffffffffffffffffffffffffffffff16611d0983610aa9565b73ffffffffffffffffffffffffffffffffffffffff167f8c5be1e5ebec7d5bd14f71427d1e84f3dd0314c0f7b2291e5b200ac8c7c3b92560405160405180910390a45050565b6000611d5a82611c22565b611d99576040517f08c379a0000000000000000000000000000000000000000000000000000000008152600401611d9090613ca5565b60405180910390fd5b6000611da483610aa9565b90508073ffffffffffffffffffffffffffffffffffffffff168473ffffffffffffffffffffffffffffffffffffffff161480611e1357508373ffffffffffffffffffffffffffffffffffffffff16611dfb84610520565b73ffffffffffffffffffffffffffffffffffffffff16145b80611e245750611e238185611a82565b5b91505092915050565b8273ffffffffffffffffffffffffffffffffffffffff16611e4d82610aa9565b73ffffffffffffffffffffffffffffffffffffffff1614611ea3576040517f08c379a0000000000000000000000000000000000000000000000000000000008152600401611e9a90613d65565b60405180910390fd5b600073ffffffffffffffffffffffffffffffffffffffff168273ffffffffffffffffffffffffffffffffffffffff161415611f13576040517f08c379a0000000000000000000000000000000000000000000000000000000008152600401611f0a90613c45565b60405180910390fd5b611f1e8383836128e8565b611f29600082611c96565b6001600360008573ffffffffffffffffffffffffffffffffffffffff1673ffffffffffffffffffffffffffffffffffffffff1681526020019081526020016000206000828254611f79919061400f565b925050819055506001600360008473ffffffffffffffffffffffffffffffffffffffff1673ffffffffffffffffffffffffffffffffffffffff1681526020019081526020016000206000828254611fd09190613f2e565b92505081905550816002600083815260200190815260200160002060006101000a81548173ffffffffffffffffffffffffffffffffffffffff021916908373ffffffffffffffffffffffffffffffffffffffff160217905550808273ffffffffffffffffffffffffffffffffffffffff168473ffffffffffffffffffffffffffffffffffffffff167fddf252ad1be2c89b69c2b068fc378daa952ba7f163c4a11628f55a4df523b3ef60405160405180910390a4505050565b600081600001549050919050565b6120b18282604051806020016040528060008152506128ed565b5050565b61214d82826040516024016120cb929190613b2b565b6040516020818303038152906040527f9710a9d0000000000000000000000000000000000000000000000000000000007bffffffffffffffffffffffffffffffffffffffffffffffffffffffff19166020820180517bffffffffffffffffffffffffffffffffffffffffffffffffffffffff83818316178352505050506128bf565b5050565b6001816000016000828254019250508190555050565b8173ffffffffffffffffffffffffffffffffffffffff168373ffffffffffffffffffffffffffffffffffffffff1614156121d6576040517f08c379a00000000000000000000000000000000000000000000000000000000081526004016121cd90613c65565b60405180910390fd5b80600560008573ffffffffffffffffffffffffffffffffffffffff1673ffffffffffffffffffffffffffffffffffffffff16815260200190815260200160002060008473ffffffffffffffffffffffffffffffffffffffff1673ffffffffffffffffffffffffffffffffffffffff16815260200190815260200160002060006101000a81548160ff0219169083151502179055508173ffffffffffffffffffffffffffffffffffffffff168373ffffffffffffffffffffffffffffffffffffffff167f17307eab39ab6107e8899845ad3d59bd9653f200f220920489ca2b5937696c31836040516122c79190613a41565b60405180910390a3505050565b6122df848484611e2d565b6122eb84848484612948565b61232a576040517f08c379a000000000000000000000000000000000000000000000000000000000815260040161232190613c05565b60405180910390fd5b50505050565b60606000821415612378576040518060400160405280600181526020017f300000000000000000000000000000000000000000000000000000000000000081525090506124d8565b600082905060005b600082146123aa5780806123939061415c565b915050600a826123a39190613f84565b9150612380565b60008167ffffffffffffffff8111156123ec577f4e487b7100000000000000000000000000000000000000000000000000000000600052604160045260246000fd5b6040519080825280601f01601f19166020018201604052801561241e5781602001600182028036833780820191505090505b5090505b600085146124d157600182612437919061400f565b9150600a8561244691906141d3565b60306124529190613f2e565b60f81b81838151811061248e577f4e487b7100000000000000000000000000000000000000000000000000000000600052603260045260246000fd5b60200101907effffffffffffffffffffffffffffffffffffffffffffffffffffffffffffff1916908160001a905350600a856124ca9190613f84565b9450612422565b8093505050505b919050565b606060008251141561250057604051806020016040528060008152509050612677565b60006040518060600160405280604081526020016149a4604091399050600060036002855161252f9190613f2e565b6125399190613f84565b60046125459190613fb5565b905060006020826125569190613f2e565b67ffffffffffffffff811115612595577f4e487b7100000000000000000000000000000000000000000000000000000000600052604160045260246000fd5b6040519080825280601f01601f1916602001820160405280156125c75781602001600182028036833780820191505090505b509050818152600183018586518101602084015b81831015612636576003830192508251603f8160121c168501518253600182019150603f81600c1c168501518253600182019150603f8160061c168501518253600182019150603f81168501518253600182019150506125db565b60038951066001811461265057600281146126605761266b565b613d3d60f01b600283035261266b565b603d60f81b60018303525b50505050508093505050505b919050565b612718848484846040516024016126969493929190613ad8565b6040516020818303038152906040527fd5cf17d0000000000000000000000000000000000000000000000000000000007bffffffffffffffffffffffffffffffffffffffffffffffffffffffff19166020820180517bffffffffffffffffffffffffffffffffffffffffffffffffffffffff83818316178352505050506128bf565b50505050565b6000806005423360105460405160200161273a93929190613944565b6040516020818303038152906040528051906020012060001c61275d91906141d3565b9050601060008154809291906127729061415c565b91905055508091505090565b61281883838360405160240161279693929190613b5b565b6040516020818303038152906040527f969cdd03000000000000000000000000000000000000000000000000000000007bffffffffffffffffffffffffffffffffffffffffffffffffffffffff19166020820180517bffffffffffffffffffffffffffffffffffffffffffffffffffffffff83818316178352505050506128bf565b505050565b6128b9848484846040516024016128379493929190613b99565b6040516020818303038152906040527f08ee5666000000000000000000000000000000000000000000000000000000007bffffffffffffffffffffffffffffffffffffffffffffffffffffffff19166020820180517bffffffffffffffffffffffffffffffffffffffffffffffffffffffff83818316178352505050506128bf565b50505050565b60008151905060006a636f6e736f6c652e6c6f679050602083016000808483855afa5050505050565b505050565b6128f78383612adf565b6129046000848484612948565b612943576040517f08c379a000000000000000000000000000000000000000000000000000000000815260040161293a90613c05565b60405180910390fd5b505050565b60006129698473ffffffffffffffffffffffffffffffffffffffff16612cad565b15612ad2578373ffffffffffffffffffffffffffffffffffffffff1663150b7a02612992611c8e565b8786866040518563ffffffff1660e01b81526004016129b4949392919061399c565b602060405180830381600087803b1580156129ce57600080fd5b505af19250505080156129ff57506040513d601f19601f820116820180604052508101906129fc9190613041565b60015b612a82573d8060008114612a2f576040519150601f19603f3d011682016040523d82523d6000602084013e612a34565b606091505b50600081511415612a7a576040517f08c379a0000000000000000000000000000000000000000000000000000000008152600401612a7190613c05565b60405180910390fd5b805181602001fd5b63150b7a0260e01b7bffffffffffffffffffffffffffffffffffffffffffffffffffffffff1916817bffffffffffffffffffffffffffffffffffffffffffffffffffffffff191614915050612ad7565b600190505b949350505050565b600073ffffffffffffffffffffffffffffffffffffffff168273ffffffffffffffffffffffffffffffffffffffff161415612b4f576040517f08c379a0000000000000000000000000000000000000000000000000000000008152600401612b4690613d25565b60405180910390fd5b612b5881611c22565b15612b98576040517f08c379a0000000000000000000000000000000000000000000000000000000008152600401612b8f90613c25565b60405180910390fd5b612ba4600083836128e8565b6001600360008473ffffffffffffffffffffffffffffffffffffffff1673ffffffffffffffffffffffffffffffffffffffff1681526020019081526020016000206000828254612bf49190613f2e565b92505081905550816002600083815260200190815260200160002060006101000a81548173ffffffffffffffffffffffffffffffffffffffff021916908373ffffffffffffffffffffffffffffffffffffffff160217905550808273ffffffffffffffffffffffffffffffffffffffff16600073ffffffffffffffffffffffffffffffffffffffff167fddf252ad1be2c89b69c2b068fc378daa952ba7f163c4a11628f55a4df523b3ef60405160405180910390a45050565b600080823b905060008111915050919050565b6040518060c001604052806000815260200160008152602001600081526020016000815260200160608152602001606081525090565b828054612d02906140f9565b90600052602060002090601f016020900481019282612d245760008555612d72565b82601f10612d355780548555612d72565b82800160010185558215612d7257600052602060002091601f016020900482015b82811115612d71578254825591600101919060010190612d56565b5b509050612d7f9190612d83565b5090565b5b80821115612d9c576000816000905550600101612d84565b5090565b6000612db3612dae84613e70565b613e4b565b905082815260208101848484011115612dcb57600080fd5b612dd68482856140b7565b509392505050565b600081359050612ded81614925565b92915050565b600081359050612e028161493c565b92915050565b600081359050612e1781614953565b92915050565b600081519050612e2c81614953565b92915050565b600082601f830112612e4357600080fd5b8135612e53848260208601612da0565b91505092915050565b600081359050612e6b8161496a565b92915050565b600060208284031215612e8357600080fd5b6000612e9184828501612dde565b91505092915050565b60008060408385031215612ead57600080fd5b6000612ebb85828601612dde565b9250506020612ecc85828601612dde565b9150509250929050565b600080600060608486031215612eeb57600080fd5b6000612ef986828701612dde565b9350506020612f0a86828701612dde565b9250506040612f1b86828701612e5c565b9150509250925092565b60008060008060808587031215612f3b57600080fd5b6000612f4987828801612dde565b9450506020612f5a87828801612dde565b9350506040612f6b87828801612e5c565b925050606085013567ffffffffffffffff811115612f8857600080fd5b612f9487828801612e32565b91505092959194509250565b60008060408385031215612fb357600080fd5b6000612fc185828601612dde565b9250506020612fd285828601612df3565b9150509250929050565b60008060408385031215612fef57600080fd5b6000612ffd85828601612dde565b925050602061300e85828601612e5c565b9150509250929050565b60006020828403121561302a57600080fd5b600061303884828501612e08565b91505092915050565b60006020828403121561305357600080fd5b600061306184828501612e1d565b91505092915050565b60006020828403121561307c57600080fd5b600061308a84828501612e5c565b91505092915050565b600061309f8383613624565b905092915050565b6130b081614043565b82525050565b6130c76130c282614043565b6141a5565b82525050565b60006130d882613eb1565b6130e28185613edf565b9350836020820285016130f485613ea1565b8060005b8581101561313057848403895281516131118582613093565b945061311c83613ed2565b925060208a019950506001810190506130f8565b50829750879550505050505092915050565b61314b81614055565b82525050565b600061315c82613ebc565b6131668185613ef0565b93506131768185602086016140c6565b61317f816142c0565b840191505092915050565b600061319582613ec7565b61319f8185613f01565b93506131af8185602086016140c6565b6131b8816142c0565b840191505092915050565b60006131ce82613ec7565b6131d88185613f12565b93506131e88185602086016140c6565b6131f1816142c0565b840191505092915050565b600061320782613ec7565b6132118185613f23565b93506132218185602086016140c6565b80840191505092915050565b600061323a600283613f23565b9150613245826142de565b600282019050919050565b600061325d601683613f12565b915061326882614307565b602082019050919050565b6000613280602283613f23565b915061328b82614330565b602282019050919050565b60006132a3603283613f12565b91506132ae8261437f565b604082019050919050565b60006132c6600283613f23565b91506132d1826143ce565b600282019050919050565b60006132e9601e83613f23565b91506132f4826143f7565b601e82019050919050565b600061330c601c83613f12565b915061331782614420565b602082019050919050565b600061332f602483613f12565b915061333a82614449565b604082019050919050565b6000613352601983613f12565b915061335d82614498565b602082019050919050565b6000613375600883613f23565b9150613380826144c1565b600882019050919050565b6000613398601483613f12565b91506133a3826144ea565b602082019050919050565b60006133bb602c83613f12565b91506133c682614513565b604082019050919050565b60006133de601e83613f23565b91506133e982614562565b601e82019050919050565b6000613401603883613f12565b915061340c8261458b565b604082019050919050565b6000613424602a83613f12565b915061342f826145da565b604082019050919050565b6000613447602983613f12565b915061345282614629565b604082019050919050565b600061346a600983613f23565b915061347582614678565b600982019050919050565b600061348d602083613f23565b9150613498826146a1565b602082019050919050565b60006134b0602083613f12565b91506134bb826146ca565b602082019050919050565b60006134d3600183613f23565b91506134de826146f3565b600182019050919050565b60006134f6602c83613f12565b91506135018261471c565b604082019050919050565b6000613519602983613f12565b91506135248261476b565b604082019050919050565b600061353c600183613f23565b9150613547826147ba565b600182019050919050565b600061355f600f83613f23565b915061356a826147e3565b600f82019050919050565b6000613582600183613f23565b915061358d8261480c565b600182019050919050565b60006135a5602183613f12565b91506135b082614835565b604082019050919050565b60006135c8601d83613f23565b91506135d382614884565b601d82019050919050565b60006135eb603183613f12565b91506135f6826148ad565b604082019050919050565b600061360e600a83613f12565b9150613619826148fc565b602082019050919050565b600060c08301600083015161363c6000860182613744565b50602083015161364f6020860182613744565b5060408301516136626040860182613744565b5060608301516136756060860182613744565b506080830151848203608086015261368d828261318a565b91505060a083015184820360a08601526136a7828261318a565b9150508091505092915050565b600060c0830160008301516136cc6000860182613744565b5060208301516136df6020860182613744565b5060408301516136f26040860182613744565b5060608301516137056060860182613744565b506080830151848203608086015261371d828261318a565b91505060a083015184820360a0860152613737828261318a565b9150508091505092915050565b61374d816140ad565b82525050565b61375c816140ad565b82525050565b61377361376e826140ad565b6141c9565b82525050565b600061378482613273565b915061379082846131fc565b915061379b8261322d565b915081905092915050565b60006137b1826132dc565b91506137bd82846131fc565b91506137c88261322d565b915081905092915050565b60006137de82613368565b91506137ea82846131fc565b91506137f5826132b9565b915081905092915050565b600061380b826133d1565b915061381782846131fc565b91506138228261322d565b915081905092915050565b60006138388261345d565b915061384482846131fc565b915061384f826132b9565b915081905092915050565b600061386582613480565b915061387182846131fc565b915061387c826134c6565b915081905092915050565b60006138928261352f565b915061389e82866131fc565b91506138aa82856131fc565b91506138b682846131fc565b91506138c1826134c6565b9150819050949350505050565b60006138d982613552565b91506138e582876131fc565b91506138f182866131fc565b91506138fd82856131fc565b915061390982846131fc565b915061391482613575565b915081905095945050505050565b600061392d826135bb565b915061393982846131fc565b915081905092915050565b60006139508286613762565b60208201915061396082856130b6565b6014820191506139708284613762565b602082019150819050949350505050565b600060208201905061399660008301846130a7565b92915050565b60006080820190506139b160008301876130a7565b6139be60208301866130a7565b6139cb6040830185613753565b81810360608301526139dd8184613151565b905095945050505050565b60006060820190506139fd60008301866130a7565b613a0a6020830185613753565b613a176040830184613753565b949350505050565b60006020820190508181036000830152613a3981846130cd565b905092915050565b6000602082019050613a566000830184613142565b92915050565b60006020820190508181036000830152613a7681846131c3565b905092915050565b60006080820190508181036000830152613a9881876131c3565b90508181036020830152613aac81866131c3565b9050613abb6040830185613753565b8181036060830152613acd81846131c3565b905095945050505050565b60006080820190508181036000830152613af281876131c3565b90508181036020830152613b0681866131c3565b9050613b156040830185613753565b613b226060830184613753565b95945050505050565b60006040820190508181036000830152613b4581856131c3565b9050613b546020830184613753565b9392505050565b60006060820190508181036000830152613b7581866131c3565b9050613b846020830185613753565b613b916040830184613753565b949350505050565b60006080820190508181036000830152613bb381876131c3565b9050613bc26020830186613753565b613bcf6040830185613753565b613bdc6060830184613753565b95945050505050565b60006020820190508181036000830152613bfe81613250565b9050919050565b60006020820190508181036000830152613c1e81613296565b9050919050565b60006020820190508181036000830152613c3e816132ff565b9050919050565b60006020820190508181036000830152613c5e81613322565b9050919050565b60006020820190508181036000830152613c7e81613345565b9050919050565b60006020820190508181036000830152613c9e8161338b565b9050919050565b60006020820190508181036000830152613cbe816133ae565b9050919050565b60006020820190508181036000830152613cde816133f4565b9050919050565b60006020820190508181036000830152613cfe81613417565b9050919050565b60006020820190508181036000830152613d1e8161343a565b9050919050565b60006020820190508181036000830152613d3e816134a3565b9050919050565b60006020820190508181036000830152613d5e816134e9565b9050919050565b60006020820190508181036000830152613d7e8161350c565b9050919050565b60006020820190508181036000830152613d9e81613598565b9050919050565b60006020820190508181036000830152613dbe816135de565b9050919050565b60006020820190508181036000830152613dde81613601565b9050919050565b60006020820190508181036000830152613dff81846136b4565b905092915050565b6000602082019050613e1c6000830184613753565b92915050565b6000604082019050613e376000830185613753565b613e446020830184613753565b9392505050565b6000613e55613e66565b9050613e61828261412b565b919050565b6000604051905090565b600067ffffffffffffffff821115613e8b57613e8a614291565b5b613e94826142c0565b9050602081019050919050565b6000819050602082019050919050565b600081519050919050565b600081519050919050565b600081519050919050565b6000602082019050919050565b600082825260208201905092915050565b600082825260208201905092915050565b600082825260208201905092915050565b600082825260208201905092915050565b600081905092915050565b6000613f39826140ad565b9150613f44836140ad565b9250827fffffffffffffffffffffffffffffffffffffffffffffffffffffffffffffffff03821115613f7957613f78614204565b5b828201905092915050565b6000613f8f826140ad565b9150613f9a836140ad565b925082613faa57613fa9614233565b5b828204905092915050565b6000613fc0826140ad565b9150613fcb836140ad565b9250817fffffffffffffffffffffffffffffffffffffffffffffffffffffffffffffffff048311821515161561400457614003614204565b5b828202905092915050565b600061401a826140ad565b9150614025836140ad565b92508282101561403857614037614204565b5b828203905092915050565b600061404e8261408d565b9050919050565b60008115159050919050565b60007fffffffff0000000000000000000000000000000000000000000000000000000082169050919050565b600073ffffffffffffffffffffffffffffffffffffffff82169050919050565b6000819050919050565b82818337600083830152505050565b60005b838110156140e45780820151818401526020810190506140c9565b838111156140f3576000848401525b50505050565b6000600282049050600182168061411157607f821691505b6020821081141561412557614124614262565b5b50919050565b614134826142c0565b810181811067ffffffffffffffff8211171561415357614152614291565b5b80604052505050565b6000614167826140ad565b91507fffffffffffffffffffffffffffffffffffffffffffffffffffffffffffffffff82141561419a57614199614204565b5b600182019050919050565b60006141b0826141b7565b9050919050565b60006141c2826142d1565b9050919050565b6000819050919050565b60006141de826140ad565b91506141e9836140ad565b9250826141f9576141f8614233565b5b828206905092915050565b7f4e487b7100000000000000000000000000000000000000000000000000000000600052601160045260246000fd5b7f4e487b7100000000000000000000000000000000000000000000000000000000600052601260045260246000fd5b7f4e487b7100000000000000000000000000000000000000000000000000000000600052602260045260246000fd5b7f4e487b7100000000000000000000000000000000000000000000000000000000600052604160045260246000fd5b6000601f19601f8301169050919050565b60008160601b9050919050565b7f7d2c000000000000000000000000000000000000000000000000000000000000600082015250565b7f426f737320686173206265656e20646566656174656400000000000000000000600082015250565b7f7b202274726169745f74797065223a20224d6178204850222c202276616c756560008201527f223a000000000000000000000000000000000000000000000000000000000000602082015250565b7f4552433732313a207472616e7366657220746f206e6f6e20455243373231526560008201527f63656976657220696d706c656d656e7465720000000000000000000000000000602082015250565b7f222c000000000000000000000000000000000000000000000000000000000000600082015250565b7f7b202274726169745f74797065223a20224850222c202276616c7565223a0000600082015250565b7f4552433732313a20746f6b656e20616c7265616479206d696e74656400000000600082015250565b7f4552433732313a207472616e7366657220746f20746865207a65726f2061646460008201527f7265737300000000000000000000000000000000000000000000000000000000602082015250565b7f4552433732313a20617070726f766520746f2063616c6c657200000000000000600082015250565b7f226e616d65223a22000000000000000000000000000000000000000000000000600082015250565b7f546f6b656e20646f6573206e6f74206578697374000000000000000000000000600082015250565b7f4552433732313a206f70657261746f7220717565727920666f72206e6f6e657860008201527f697374656e7420746f6b656e0000000000000000000000000000000000000000602082015250565b7f7b202274726169745f74797065223a20225850222c202276616c7565223a0000600082015250565b7f4552433732313a20617070726f76652063616c6c6572206973206e6f74206f7760008201527f6e6572206e6f7220617070726f76656420666f7220616c6c0000000000000000602082015250565b7f4552433732313a2062616c616e636520717565727920666f7220746865207a6560008201527f726f206164647265737300000000000000000000000000000000000000000000602082015250565b7f4552433732313a206f776e657220717565727920666f72206e6f6e657869737460008201527f656e7420746f6b656e0000000000000000000000000000000000000000000000602082015250565b7f22696d616765223a220000000000000000000000000000000000000000000000600082015250565b7f7b202274726169745f74797065223a2022476f6c64222c202276616c7565223a600082015250565b7f4552433732313a206d696e7420746f20746865207a65726f2061646472657373600082015250565b7f7d00000000000000000000000000000000000000000000000000000000000000600082015250565b7f4552433732313a20617070726f76656420717565727920666f72206e6f6e657860008201527f697374656e7420746f6b656e0000000000000000000000000000000000000000602082015250565b7f4552433732313a207472616e73666572206f6620746f6b656e2074686174206960008201527f73206e6f74206f776e0000000000000000000000000000000000000000000000602082015250565b7f7b00000000000000000000000000000000000000000000000000000000000000600082015250565b7f2261747472696275746573223a205b0000000000000000000000000000000000600082015250565b7f5d00000000000000000000000000000000000000000000000000000000000000600082015250565b7f4552433732313a20617070726f76616c20746f2063757272656e74206f776e6560008201527f7200000000000000000000000000000000000000000000000000000000000000602082015250565b7f646174613a6170706c69636174696f6e2f6a736f6e3b6261736536342c000000600082015250565b7f4552433732313a207472616e736665722063616c6c6572206973206e6f74206f60008201527f776e6572206e6f7220617070726f766564000000000000000000000000000000602082015250565b7f506c617965722064656400000000000000000000000000000000000000000000600082015250565b61492e81614043565b811461493957600080fd5b50565b61494581614055565b811461495057600080fd5b50565b61495c81614061565b811461496757600080fd5b50565b614973816140ad565b811461497e57600080fd5b5056fe506c61796572206465616c732025732064616d6167652e20426f73732048502025734142434445464748494a4b4c4d4e4f505152535455565758595a6162636465666768696a6b6c6d6e6f707172737475767778797a303132333435363738392b2f506c6179657220617761726465642025732078702c20746f74616c2078702025732c20676f6c642061776172646564202573426f7373206465616c732025732064616d6167652e20506c617965722068703a2025730a0a25732061626f757420746f2061747461636b2e2048617320257320485020616e64202573205850a26469706673582212205c2dd5c6196b5758fcc870070a48bf6d4d2859b3cb29cf850de4c2e964c04a6b64736f6c634300080400334372656174656420636861726163746572202573207769746820687020257320616e6420696d616765202573",
  "linkReferences": {},
  "deployedLinkReferences": {}
}