{
  "_format": "hh-sol-artifact-1",
  "contractName": "Game",
  "sourceName": "contracts/Game.sol",
  "abi": [
    {
      "inputs": [
        {
          "internalType": "uint256[]",
          "name": "hp",
          "type": "uint256[]"
        },
        {
          "internalType": "uint256[]",
          "name": "xp",
          "type": "uint256[]"
        },
        {
          "internalType": "uint256[]",
          "name": "gold",
          "type": "uint256[]"
        },
        {
          "internalType": "string[]",
          "name": "name",
          "type": "string[]"
        },
        {
          "internalType": "string[]",
          "name": "image",
          "type": "string[]"
        }
      ],
      "stateMutability": "nonpayable",
      "type": "constructor"
    },
    {
      "anonymous": false,
      "inputs": [
        {
          "indexed": true,
          "internalType": "address",
          "name": "owner",
          "type": "address"
        },
        {
          "indexed": true,
          "internalType": "address",
          "name": "approved",
          "type": "address"
        },
        {
          "indexed": true,
          "internalType": "uint256",
          "name": "tokenId",
          "type": "uint256"
        }
      ],
      "name": "Approval",
      "type": "event"
    },
    {
      "anonymous": false,
      "inputs": [
        {
          "indexed": true,
          "internalType": "address",
          "name": "owner",
          "type": "address"
        },
        {
          "indexed": true,
          "internalType": "address",
          "name": "operator",
          "type": "address"
        },
        {
          "indexed": false,
          "internalType": "bool",
          "name": "approved",
          "type": "bool"
        }
      ],
      "name": "ApprovalForAll",
      "type": "event"
    },
    {
      "anonymous": false,
      "inputs": [
        {
          "indexed": false,
          "internalType": "uint256",
          "name": "newBossHp",
          "type": "uint256"
        },
        {
          "indexed": false,
          "internalType": "uint256",
          "name": "newPlayerHp",
          "type": "uint256"
        }
      ],
      "name": "AttackComplete",
      "type": "event"
    },
    {
      "anonymous": false,
      "inputs": [
        {
          "indexed": false,
          "internalType": "address",
          "name": "sender",
          "type": "address"
        },
        {
          "indexed": false,
          "internalType": "uint256",
          "name": "tokenId",
          "type": "uint256"
        },
        {
          "indexed": false,
          "internalType": "uint256",
          "name": "characterIndex",
          "type": "uint256"
        }
      ],
      "name": "CharacterNFTMinted",
      "type": "event"
    },
    {
      "anonymous": false,
      "inputs": [
        {
          "indexed": true,
          "internalType": "address",
          "name": "from",
          "type": "address"
        },
        {
          "indexed": true,
          "internalType": "address",
          "name": "to",
          "type": "address"
        },
        {
          "indexed": true,
          "internalType": "uint256",
          "name": "tokenId",
          "type": "uint256"
        }
      ],
      "name": "Transfer",
      "type": "event"
    },
    {
      "inputs": [
        {
          "internalType": "address",
          "name": "to",
          "type": "address"
        },
        {
          "internalType": "uint256",
          "name": "tokenId",
          "type": "uint256"
        }
      ],
      "name": "approve",
      "outputs": [],
      "stateMutability": "nonpayable",
      "type": "function"
    },
    {
      "inputs": [],
      "name": "attackBoss",
      "outputs": [],
      "stateMutability": "nonpayable",
      "type": "function"
    },
    {
      "inputs": [
        {
          "internalType": "address",
          "name": "owner",
          "type": "address"
        }
      ],
      "name": "balanceOf",
      "outputs": [
        {
          "internalType": "uint256",
          "name": "",
          "type": "uint256"
        }
      ],
      "stateMutability": "view",
      "type": "function"
    },
    {
      "inputs": [
        {
          "internalType": "uint256",
          "name": "tokenId",
          "type": "uint256"
        }
      ],
      "name": "getApproved",
      "outputs": [
        {
          "internalType": "address",
          "name": "",
          "type": "address"
        }
      ],
      "stateMutability": "view",
      "type": "function"
    },
    {
      "inputs": [],
      "name": "getBoss",
      "outputs": [
        {
          "components": [
            {
              "internalType": "uint256",
              "name": "hp",
              "type": "uint256"
            },
            {
              "internalType": "uint256",
              "name": "xp",
              "type": "uint256"
            },
            {
              "internalType": "uint256",
              "name": "gold",
              "type": "uint256"
            },
            {
              "internalType": "string",
              "name": "name",
              "type": "string"
            },
            {
              "internalType": "string",
              "name": "image",
              "type": "string"
            }
          ],
          "internalType": "struct Game.Character",
          "name": "",
          "type": "tuple"
        }
      ],
      "stateMutability": "view",
      "type": "function"
    },
    {
      "inputs": [],
      "name": "getCharacterTypes",
      "outputs": [
        {
          "components": [
            {
              "internalType": "uint256",
              "name": "hp",
              "type": "uint256"
            },
            {
              "internalType": "uint256",
              "name": "xp",
              "type": "uint256"
            },
            {
              "internalType": "uint256",
              "name": "gold",
              "type": "uint256"
            },
            {
              "internalType": "string",
              "name": "name",
              "type": "string"
            },
            {
              "internalType": "string",
              "name": "image",
              "type": "string"
            }
          ],
          "internalType": "struct Game.Character[]",
          "name": "",
          "type": "tuple[]"
        }
      ],
      "stateMutability": "view",
      "type": "function"
    },
    {
      "inputs": [],
      "name": "getPlayer",
      "outputs": [
        {
          "components": [
            {
              "internalType": "uint256",
              "name": "hp",
              "type": "uint256"
            },
            {
              "internalType": "uint256",
              "name": "xp",
              "type": "uint256"
            },
            {
              "internalType": "uint256",
              "name": "gold",
              "type": "uint256"
            },
            {
              "internalType": "string",
              "name": "name",
              "type": "string"
            },
            {
              "internalType": "string",
              "name": "image",
              "type": "string"
            }
          ],
          "internalType": "struct Game.Character",
          "name": "",
          "type": "tuple"
        }
      ],
      "stateMutability": "view",
      "type": "function"
    },
    {
      "inputs": [
        {
          "internalType": "address",
          "name": "owner",
          "type": "address"
        },
        {
          "internalType": "address",
          "name": "operator",
          "type": "address"
        }
      ],
      "name": "isApprovedForAll",
      "outputs": [
        {
          "internalType": "bool",
          "name": "",
          "type": "bool"
        }
      ],
      "stateMutability": "view",
      "type": "function"
    },
    {
      "inputs": [
        {
          "internalType": "uint256",
          "name": "characterType",
          "type": "uint256"
        }
      ],
      "name": "mintPlayer",
      "outputs": [
        {
          "internalType": "uint256",
          "name": "tokenId",
          "type": "uint256"
        }
      ],
      "stateMutability": "nonpayable",
      "type": "function"
    },
    {
      "inputs": [],
      "name": "name",
      "outputs": [
        {
          "internalType": "string",
          "name": "",
          "type": "string"
        }
      ],
      "stateMutability": "view",
      "type": "function"
    },
    {
      "inputs": [
        {
          "internalType": "uint256",
          "name": "tokenId",
          "type": "uint256"
        }
      ],
      "name": "ownerOf",
      "outputs": [
        {
          "internalType": "address",
          "name": "",
          "type": "address"
        }
      ],
      "stateMutability": "view",
      "type": "function"
    },
    {
      "inputs": [
        {
          "internalType": "address",
          "name": "from",
          "type": "address"
        },
        {
          "internalType": "address",
          "name": "to",
          "type": "address"
        },
        {
          "internalType": "uint256",
          "name": "tokenId",
          "type": "uint256"
        }
      ],
      "name": "safeTransferFrom",
      "outputs": [],
      "stateMutability": "nonpayable",
      "type": "function"
    },
    {
      "inputs": [
        {
          "internalType": "address",
          "name": "from",
          "type": "address"
        },
        {
          "internalType": "address",
          "name": "to",
          "type": "address"
        },
        {
          "internalType": "uint256",
          "name": "tokenId",
          "type": "uint256"
        },
        {
          "internalType": "bytes",
          "name": "_data",
          "type": "bytes"
        }
      ],
      "name": "safeTransferFrom",
      "outputs": [],
      "stateMutability": "nonpayable",
      "type": "function"
    },
    {
      "inputs": [
        {
          "internalType": "address",
          "name": "operator",
          "type": "address"
        },
        {
          "internalType": "bool",
          "name": "approved",
          "type": "bool"
        }
      ],
      "name": "setApprovalForAll",
      "outputs": [],
      "stateMutability": "nonpayable",
      "type": "function"
    },
    {
      "inputs": [
        {
          "internalType": "bytes4",
          "name": "interfaceId",
          "type": "bytes4"
        }
      ],
      "name": "supportsInterface",
      "outputs": [
        {
          "internalType": "bool",
          "name": "",
          "type": "bool"
        }
      ],
      "stateMutability": "view",
      "type": "function"
    },
    {
      "inputs": [],
      "name": "symbol",
      "outputs": [
        {
          "internalType": "string",
          "name": "",
          "type": "string"
        }
      ],
      "stateMutability": "view",
      "type": "function"
    },
    {
      "inputs": [
        {
          "internalType": "uint256",
          "name": "tokenId",
          "type": "uint256"
        }
      ],
      "name": "tokenURI",
      "outputs": [
        {
          "internalType": "string",
          "name": "",
          "type": "string"
        }
      ],
      "stateMutability": "view",
      "type": "function"
    },
    {
      "inputs": [
        {
          "internalType": "address",
          "name": "from",
          "type": "address"
        },
        {
          "internalType": "address",
          "name": "to",
          "type": "address"
        },
        {
          "internalType": "uint256",
          "name": "tokenId",
          "type": "uint256"
        }
      ],
      "name": "transferFrom",
      "outputs": [],
      "stateMutability": "nonpayable",
      "type": "function"
    }
  ],
  "bytecode": "0x60806040526000600f553480156200001657600080fd5b506040516200541d3803806200541d83398181016040528101906200003c919062000952565b6040518060400160405280600f81526020017f426f737320456e636f756e7465727300000000000000000000000000000000008152506040518060400160405280600481526020017f424f5353000000000000000000000000000000000000000000000000000000008152508160009080519060200190620000c0929190620006ba565b508060019080519060200190620000d9929190620006ba565b50505060005b60018651620000ef919062000bde565b811015620003f757600c6040518060a001604052808884815181106200013e577f4e487b7100000000000000000000000000000000000000000000000000000000600052603260045260246000fd5b6020026020010151815260200187848151811062000185577f4e487b7100000000000000000000000000000000000000000000000000000000600052603260045260246000fd5b60200260200101518152602001868481518110620001cc577f4e487b7100000000000000000000000000000000000000000000000000000000600052603260045260246000fd5b6020026020010151815260200185848151811062000213577f4e487b7100000000000000000000000000000000000000000000000000000000600052603260045260246000fd5b602002602001015181526020018484815181106200025a577f4e487b7100000000000000000000000000000000000000000000000000000000600052603260045260246000fd5b602002602001015181525090806001815401808255809150506001900390600052602060002090600502016000909190919091506000820151816000015560208201518160010155604082015181600201556060820151816003019080519060200190620002ca929190620006ba565b506080820151816004019080519060200190620002e9929190620006ba565b505050620003e16040518060600160405280602c8152602001620053f1602c913984838151811062000344577f4e487b7100000000000000000000000000000000000000000000000000000000600052603260045260246000fd5b602002602001015188848151811062000386577f4e487b7100000000000000000000000000000000000000000000000000000000600052603260045260246000fd5b6020026020010151858581518110620003c8577f4e487b7100000000000000000000000000000000000000000000000000000000600052603260045260246000fd5b6020026020010151620005e560201b6200186d1760201c565b8080620003ee9062000cc5565b915050620000df565b506000600186516200040a919062000bde565b90506040518060a0016040528087838151811062000451577f4e487b7100000000000000000000000000000000000000000000000000000000600052603260045260246000fd5b6020026020010151815260200186838151811062000498577f4e487b7100000000000000000000000000000000000000000000000000000000600052603260045260246000fd5b60200260200101518152602001858381518110620004df577f4e487b7100000000000000000000000000000000000000000000000000000000600052603260045260246000fd5b6020026020010151815260200184838151811062000526577f4e487b7100000000000000000000000000000000000000000000000000000000600052603260045260246000fd5b602002602001015181526020018383815181106200056d577f4e487b7100000000000000000000000000000000000000000000000000000000600052603260045260246000fd5b602002602001015181525060076000820151816000015560208201518160010155604082015181600201556060820151816003019080519060200190620005b6929190620006ba565b506080820151816004019080519060200190620005d5929190620006ba565b5090505050505050505062000dcb565b6200068b8484848460405160240162000602949392919062000aa3565b6040516020818303038152906040527f8d142cdd000000000000000000000000000000000000000000000000000000007bffffffffffffffffffffffffffffffffffffffffffffffffffffffff19166020820180517bffffffffffffffffffffffffffffffffffffffffffffffffffffffff83818316178352505050506200069160201b60201c565b50505050565b60008151905060006a636f6e736f6c652e6c6f679050602083016000808483855afa5050505050565b828054620006c89062000c59565b90600052602060002090601f016020900481019282620006ec576000855562000738565b82601f106200070757805160ff191683800117855562000738565b8280016001018555821562000738579182015b82811115620007375782518255916020019190600101906200071a565b5b5090506200074791906200074b565b5090565b5b80821115620007665760008160009055506001016200074c565b5090565b6000620007816200077b8462000b2e565b62000b05565b90508083825260208201905082856020860282011115620007a157600080fd5b60005b85811015620007f057815167ffffffffffffffff811115620007c557600080fd5b808601620007d489826200090e565b85526020850194506020840193505050600181019050620007a4565b5050509392505050565b6000620008116200080b8462000b5d565b62000b05565b905080838252602082019050828560208602820111156200083157600080fd5b60005b858110156200086557816200084a88826200093b565b84526020840193506020830192505060018101905062000834565b5050509392505050565b600062000886620008808462000b8c565b62000b05565b9050828152602081018484840111156200089f57600080fd5b620008ac84828562000c23565b509392505050565b600082601f830112620008c657600080fd5b8151620008d88482602086016200076a565b91505092915050565b600082601f830112620008f357600080fd5b815162000905848260208601620007fa565b91505092915050565b600082601f8301126200092057600080fd5b8151620009328482602086016200086f565b91505092915050565b6000815190506200094c8162000db1565b92915050565b600080600080600060a086880312156200096b57600080fd5b600086015167ffffffffffffffff8111156200098657600080fd5b6200099488828901620008e1565b955050602086015167ffffffffffffffff811115620009b257600080fd5b620009c088828901620008e1565b945050604086015167ffffffffffffffff811115620009de57600080fd5b620009ec88828901620008e1565b935050606086015167ffffffffffffffff81111562000a0a57600080fd5b62000a1888828901620008b4565b925050608086015167ffffffffffffffff81111562000a3657600080fd5b62000a4488828901620008b4565b9150509295509295909350565b600062000a5e8262000bc2565b62000a6a818562000bcd565b935062000a7c81856020860162000c23565b62000a878162000da0565b840191505092915050565b62000a9d8162000c19565b82525050565b6000608082019050818103600083015262000abf818762000a51565b9050818103602083015262000ad5818662000a51565b905062000ae6604083018562000a92565b818103606083015262000afa818462000a51565b905095945050505050565b600062000b1162000b24565b905062000b1f828262000c8f565b919050565b6000604051905090565b600067ffffffffffffffff82111562000b4c5762000b4b62000d71565b5b602082029050602081019050919050565b600067ffffffffffffffff82111562000b7b5762000b7a62000d71565b5b602082029050602081019050919050565b600067ffffffffffffffff82111562000baa5762000ba962000d71565b5b62000bb58262000da0565b9050602081019050919050565b600081519050919050565b600082825260208201905092915050565b600062000beb8262000c19565b915062000bf88362000c19565b92508282101562000c0e5762000c0d62000d13565b5b828203905092915050565b6000819050919050565b60005b8381101562000c4357808201518184015260208101905062000c26565b8381111562000c53576000848401525b50505050565b6000600282049050600182168062000c7257607f821691505b6020821081141562000c895762000c8862000d42565b5b50919050565b62000c9a8262000da0565b810181811067ffffffffffffffff8211171562000cbc5762000cbb62000d71565b5b80604052505050565b600062000cd28262000c19565b91507fffffffffffffffffffffffffffffffffffffffffffffffffffffffffffffffff82141562000d085762000d0762000d13565b5b600182019050919050565b7f4e487b7100000000000000000000000000000000000000000000000000000000600052601160045260246000fd5b7f4e487b7100000000000000000000000000000000000000000000000000000000600052602260045260246000fd5b7f4e487b7100000000000000000000000000000000000000000000000000000000600052604160045260246000fd5b6000601f19601f8301169050919050565b62000dbc8162000c19565b811462000dc857600080fd5b50565b6146168062000ddb6000396000f3fe608060405234801561001057600080fd5b50600436106101165760003560e01c806367a2f53e116100a2578063b88d4fde11610071578063b88d4fde146102f3578063c76d9e7d1461030f578063c87b56dd1461032d578063d4f24c5b1461035d578063e985e9c51461036757610116565b806367a2f53e1461026b57806370a082311461028957806395d89b41146102b9578063a22cb465146102d757610116565b806323b872dd116100e957806323b872dd146101b55780633308f42d146101d15780633de7439f146101ef57806342842e0e1461021f5780636352211e1461023b57610116565b806301ffc9a71461011b57806306fdde031461014b578063081812fc14610169578063095ea7b314610199575b600080fd5b61013560048036038101906101309190612cc6565b610397565b604051610142919061366c565b60405180910390f35b610153610479565b6040516101609190613687565b60405180910390f35b610183600480360381019061017e9190612d18565b61050b565b60405161019091906135ac565b60405180910390f35b6101b360048036038101906101ae9190612c8a565b610590565b005b6101cf60048036038101906101ca9190612b84565b6106a8565b005b6101d9610708565b6040516101e691906139c4565b60405180910390f35b61020960048036038101906102049190612d18565b6108ba565b60405161021691906139e6565b60405180910390f35b61023960048036038101906102349190612b84565b610a60565b005b61025560048036038101906102509190612d18565b610a80565b60405161026291906135ac565b60405180910390f35b610273610b32565b604051610280919061364a565b60405180910390f35b6102a3600480360381019061029e9190612b1f565b610cd3565b6040516102b091906139e6565b60405180910390f35b6102c1610d8b565b6040516102ce9190613687565b60405180910390f35b6102f160048036038101906102ec9190612c4e565b610e1d565b005b61030d60048036038101906103089190612bd3565b610e33565b005b610317610e95565b60405161032491906139c4565b60405180910390f35b61034760048036038101906103429190612d18565b610ff1565b6040516103549190613687565b60405180910390f35b610365611324565b005b610381600480360381019061037c9190612b48565b6117d9565b60405161038e919061366c565b60405180910390f35b60007f80ac58cd000000000000000000000000000000000000000000000000000000007bffffffffffffffffffffffffffffffffffffffffffffffffffffffff1916827bffffffffffffffffffffffffffffffffffffffffffffffffffffffff1916148061046257507f5b5e139f000000000000000000000000000000000000000000000000000000007bffffffffffffffffffffffffffffffffffffffffffffffffffffffff1916827bffffffffffffffffffffffffffffffffffffffffffffffffffffffff1916145b8061047257506104718261190f565b5b9050919050565b60606000805461048890613cd8565b80601f01602080910402602001604051908101604052809291908181526020018280546104b490613cd8565b80156105015780601f106104d657610100808354040283529160200191610501565b820191906000526020600020905b8154815290600101906020018083116104e457829003601f168201915b5050505050905090565b600061051682611979565b610555576040517f08c379a000000000000000000000000000000000000000000000000000000000815260040161054c90613924565b60405180910390fd5b6004600083815260200190815260200160002060009054906101000a900473ffffffffffffffffffffffffffffffffffffffff169050919050565b600061059b82610a80565b90508073ffffffffffffffffffffffffffffffffffffffff168373ffffffffffffffffffffffffffffffffffffffff16141561060c576040517f08c379a000000000000000000000000000000000000000000000000000000000815260040161060390613964565b60405180910390fd5b8073ffffffffffffffffffffffffffffffffffffffff1661062b6119e5565b73ffffffffffffffffffffffffffffffffffffffff16148061065a5750610659816106546119e5565b6117d9565b5b610699576040517f08c379a0000000000000000000000000000000000000000000000000000000008152600401610690906138a4565b60405180910390fd5b6106a383836119ed565b505050565b6106b96106b36119e5565b82611aa6565b6106f8576040517f08c379a00000000000000000000000000000000000000000000000000000000081526004016106ef90613984565b60405180910390fd5b610703838383611b84565b505050565b610710612975565b6000600e60003373ffffffffffffffffffffffffffffffffffffffff1673ffffffffffffffffffffffffffffffffffffffff168152602001908152602001600020549050600d60008281526020019081526020016000206040518060a00160405290816000820154815260200160018201548152602001600282015481526020016003820180546107a090613cd8565b80601f01602080910402602001604051908101604052809291908181526020018280546107cc90613cd8565b80156108195780601f106107ee57610100808354040283529160200191610819565b820191906000526020600020905b8154815290600101906020018083116107fc57829003601f168201915b5050505050815260200160048201805461083290613cd8565b80601f016020809104026020016040519081016040528092919081815260200182805461085e90613cd8565b80156108ab5780601f10610880576101008083540402835291602001916108ab565b820191906000526020600020905b81548152906001019060200180831161088e57829003601f168201915b50505050508152505091505090565b6000806108c76006611de0565b90506108d33382611dee565b6109126040518060400160405280601f81526020017f4d696e74656420506c61796572204e465420772f20746f6b656e49642025730081525082611e0c565b600c838154811061094c577f4e487b7100000000000000000000000000000000000000000000000000000000600052603260045260246000fd5b9060005260206000209060050201600d6000838152602001908152602001600020600082015481600001556001820154816001015560028201548160020155600382018160030190805461099f90613cd8565b6109aa9291906129a4565b5060048201816004019080546109bf90613cd8565b6109ca9291906129a4565b5090505080600e60003373ffffffffffffffffffffffffffffffffffffffff1673ffffffffffffffffffffffffffffffffffffffff16815260200190815260200160002081905550610a1c6006611ea8565b7f4bc303fd457a97b4691b9af582ce71868a3d258638c8d4f8c60988a0f0bfb8cd338285604051610a4f93929190613613565b60405180910390a180915050919050565b610a7b83838360405180602001604052806000815250610e33565b505050565b6000806002600084815260200190815260200160002060009054906101000a900473ffffffffffffffffffffffffffffffffffffffff169050600073ffffffffffffffffffffffffffffffffffffffff168173ffffffffffffffffffffffffffffffffffffffff161415610b29576040517f08c379a0000000000000000000000000000000000000000000000000000000008152600401610b20906138e4565b60405180910390fd5b80915050919050565b6060600c805480602002602001604051908101604052809291908181526020016000905b82821015610cca57838290600052602060002090600502016040518060a0016040529081600082015481526020016001820154815260200160028201548152602001600382018054610ba790613cd8565b80601f0160208091040260200160405190810160405280929190818152602001828054610bd390613cd8565b8015610c205780601f10610bf557610100808354040283529160200191610c20565b820191906000526020600020905b815481529060010190602001808311610c0357829003601f168201915b50505050508152602001600482018054610c3990613cd8565b80601f0160208091040260200160405190810160405280929190818152602001828054610c6590613cd8565b8015610cb25780601f10610c8757610100808354040283529160200191610cb2565b820191906000526020600020905b815481529060010190602001808311610c9557829003601f168201915b50505050508152505081526020019060010190610b56565b50505050905090565b60008073ffffffffffffffffffffffffffffffffffffffff168273ffffffffffffffffffffffffffffffffffffffff161415610d44576040517f08c379a0000000000000000000000000000000000000000000000000000000008152600401610d3b906138c4565b60405180910390fd5b600360008373ffffffffffffffffffffffffffffffffffffffff1673ffffffffffffffffffffffffffffffffffffffff168152602001908152602001600020549050919050565b606060018054610d9a90613cd8565b80601f0160208091040260200160405190810160405280929190818152602001828054610dc690613cd8565b8015610e135780601f10610de857610100808354040283529160200191610e13565b820191906000526020600020905b815481529060010190602001808311610df657829003601f168201915b5050505050905090565b610e2f610e286119e5565b8383611ebe565b5050565b610e44610e3e6119e5565b83611aa6565b610e83576040517f08c379a0000000000000000000000000000000000000000000000000000000008152600401610e7a90613984565b60405180910390fd5b610e8f8484848461202b565b50505050565b610e9d612975565b60076040518060a0016040529081600082015481526020016001820154815260200160028201548152602001600382018054610ed890613cd8565b80601f0160208091040260200160405190810160405280929190818152602001828054610f0490613cd8565b8015610f515780601f10610f2657610100808354040283529160200191610f51565b820191906000526020600020905b815481529060010190602001808311610f3457829003601f168201915b50505050508152602001600482018054610f6a90613cd8565b80601f0160208091040260200160405190810160405280929190818152602001828054610f9690613cd8565b8015610fe35780601f10610fb857610100808354040283529160200191610fe3565b820191906000526020600020905b815481529060010190602001808311610fc657829003601f168201915b505050505081525050905090565b6060610ffc82611979565b61103b576040517f08c379a000000000000000000000000000000000000000000000000000000000815260040161103290613864565b60405180910390fd5b6000600d60008481526020019081526020016000206040518060a001604052908160008201548152602001600182015481526020016002820154815260200160038201805461108990613cd8565b80601f01602080910402602001604051908101604052809291908181526020018280546110b590613cd8565b80156111025780601f106110d757610100808354040283529160200191611102565b820191906000526020600020905b8154815290600101906020018083116110e557829003601f168201915b5050505050815260200160048201805461111b90613cd8565b80601f016020809104026020016040519081016040528092919081815260200182805461114790613cd8565b80156111945780601f1061116957610100808354040283529160200191611194565b820191906000526020600020905b81548152906001019060200180831161117757829003601f168201915b505050505081525050905060006111ae8260000151612087565b905060006111bf8360200151612087565b905060006111d08460400151612087565b9050600084606001516040516020016111e9919061340b565b6040516020818303038152906040529050600085608001516040516020016112119190613465565b604051602081830303815290604052905060008560405160200161123591906133de565b60405160208183030381529060405290506000856040516020016112599190613438565b604051602081830303815290604052905060008560405160200161127d9190613492565b604051602081830303815290604052905060008383836040516020016112a593929190613506565b604051602081830303815290604052905060008686836040516020016112cd939291906134bf565b604051602081830303815290604052905060006112e982612234565b90506000816040516020016112fe919061354d565b6040516020818303038152906040529050809d5050505050505050505050505050919050565b6000600e60003373ffffffffffffffffffffffffffffffffffffffff1673ffffffffffffffffffffffffffffffffffffffff1681526020019081526020016000205490506000600d60008381526020019081526020016000206040518060a00160405290816000820154815260200160018201548152602001600282015481526020016003820180546113b690613cd8565b80601f01602080910402602001604051908101604052809291908181526020018280546113e290613cd8565b801561142f5780601f106114045761010080835404028352916020019161142f565b820191906000526020600020905b81548152906001019060200180831161141257829003601f168201915b5050505050815260200160048201805461144890613cd8565b80601f016020809104026020016040519081016040528092919081815260200182805461147490613cd8565b80156114c15780601f10611496576101008083540402835291602001916114c1565b820191906000526020600020905b8154815290600101906020018083116114a457829003601f168201915b50505050508152505090506114fc6040518060600160405280602881526020016145b9602891398260600151836000015184602001516123d3565b6115d46040518060400160405280601b81526020017f426f73732025732068617320257320485020616e6420257320585000000000008152506007600301805461154590613cd8565b80601f016020809104026020016040519081016040528092919081815260200182805461157190613cd8565b80156115be5780601f10611593576101008083540402835291602001916115be565b820191906000526020600020905b8154815290600101906020018083116115a157829003601f168201915b50505050506007600001546007600101546123d3565b600081600001511161161b576040517f08c379a0000000000000000000000000000000000000000000000000000000008152600401611612906139a4565b60405180910390fd5b600060076000015411611663576040517f08c379a000000000000000000000000000000000000000000000000000000000815260040161165a906137c4565b60405180910390fd5b600061166d612475565b905080600760000154101561168c5760006007600001819055506116a7565b8060076000015461169d9190613bee565b6007600001819055505b6116cf60405180606001604052806022815260200161453360229139826007600001546124d5565b60006116d9612475565b905080836000015110156116f7576000836000018181525050611711565b8083600001516117079190613bee565b8360000181815250505b611738604051806060016040528060248152602001614595602491398285600001516124d5565b6000600760000154141561179157600760010154836020015161175b9190613b0d565b8360200181815250506117906040518060600160405280602181526020016145126021913960076001015485602001516124d5565b5b7f838ab28464562786a6c4ab2311964b82fa60bd9b14aa7e856af1f3f18d41a41460076000015484600001516040516117cb929190613a01565b60405180910390a150505050565b6000600560008473ffffffffffffffffffffffffffffffffffffffff1673ffffffffffffffffffffffffffffffffffffffff16815260200190815260200160002060008373ffffffffffffffffffffffffffffffffffffffff1673ffffffffffffffffffffffffffffffffffffffff16815260200190815260200160002060009054906101000a900460ff16905092915050565b6119098484848460405160240161188794939291906136a9565b6040516020818303038152906040527f8d142cdd000000000000000000000000000000000000000000000000000000007bffffffffffffffffffffffffffffffffffffffffffffffffffffffff19166020820180517bffffffffffffffffffffffffffffffffffffffffffffffffffffffff8381831617835250505050612574565b50505050565b60007f01ffc9a7000000000000000000000000000000000000000000000000000000007bffffffffffffffffffffffffffffffffffffffffffffffffffffffff1916827bffffffffffffffffffffffffffffffffffffffffffffffffffffffff1916149050919050565b60008073ffffffffffffffffffffffffffffffffffffffff166002600084815260200190815260200160002060009054906101000a900473ffffffffffffffffffffffffffffffffffffffff1673ffffffffffffffffffffffffffffffffffffffff1614159050919050565b600033905090565b816004600083815260200190815260200160002060006101000a81548173ffffffffffffffffffffffffffffffffffffffff021916908373ffffffffffffffffffffffffffffffffffffffff160217905550808273ffffffffffffffffffffffffffffffffffffffff16611a6083610a80565b73ffffffffffffffffffffffffffffffffffffffff167f8c5be1e5ebec7d5bd14f71427d1e84f3dd0314c0f7b2291e5b200ac8c7c3b92560405160405180910390a45050565b6000611ab182611979565b611af0576040517f08c379a0000000000000000000000000000000000000000000000000000000008152600401611ae790613884565b60405180910390fd5b6000611afb83610a80565b90508073ffffffffffffffffffffffffffffffffffffffff168473ffffffffffffffffffffffffffffffffffffffff161480611b6a57508373ffffffffffffffffffffffffffffffffffffffff16611b528461050b565b73ffffffffffffffffffffffffffffffffffffffff16145b80611b7b5750611b7a81856117d9565b5b91505092915050565b8273ffffffffffffffffffffffffffffffffffffffff16611ba482610a80565b73ffffffffffffffffffffffffffffffffffffffff1614611bfa576040517f08c379a0000000000000000000000000000000000000000000000000000000008152600401611bf190613944565b60405180910390fd5b600073ffffffffffffffffffffffffffffffffffffffff168273ffffffffffffffffffffffffffffffffffffffff161415611c6a576040517f08c379a0000000000000000000000000000000000000000000000000000000008152600401611c6190613824565b60405180910390fd5b611c7583838361259d565b611c806000826119ed565b6001600360008573ffffffffffffffffffffffffffffffffffffffff1673ffffffffffffffffffffffffffffffffffffffff1681526020019081526020016000206000828254611cd09190613bee565b925050819055506001600360008473ffffffffffffffffffffffffffffffffffffffff1673ffffffffffffffffffffffffffffffffffffffff1681526020019081526020016000206000828254611d279190613b0d565b92505081905550816002600083815260200190815260200160002060006101000a81548173ffffffffffffffffffffffffffffffffffffffff021916908373ffffffffffffffffffffffffffffffffffffffff160217905550808273ffffffffffffffffffffffffffffffffffffffff168473ffffffffffffffffffffffffffffffffffffffff167fddf252ad1be2c89b69c2b068fc378daa952ba7f163c4a11628f55a4df523b3ef60405160405180910390a4505050565b600081600001549050919050565b611e088282604051806020016040528060008152506125a2565b5050565b611ea48282604051602401611e22929190613756565b6040516020818303038152906040527f9710a9d0000000000000000000000000000000000000000000000000000000007bffffffffffffffffffffffffffffffffffffffffffffffffffffffff19166020820180517bffffffffffffffffffffffffffffffffffffffffffffffffffffffff8381831617835250505050612574565b5050565b6001816000016000828254019250508190555050565b8173ffffffffffffffffffffffffffffffffffffffff168373ffffffffffffffffffffffffffffffffffffffff161415611f2d576040517f08c379a0000000000000000000000000000000000000000000000000000000008152600401611f2490613844565b60405180910390fd5b80600560008573ffffffffffffffffffffffffffffffffffffffff1673ffffffffffffffffffffffffffffffffffffffff16815260200190815260200160002060008473ffffffffffffffffffffffffffffffffffffffff1673ffffffffffffffffffffffffffffffffffffffff16815260200190815260200160002060006101000a81548160ff0219169083151502179055508173ffffffffffffffffffffffffffffffffffffffff168373ffffffffffffffffffffffffffffffffffffffff167f17307eab39ab6107e8899845ad3d59bd9653f200f220920489ca2b5937696c318360405161201e919061366c565b60405180910390a3505050565b612036848484611b84565b612042848484846125fd565b612081576040517f08c379a0000000000000000000000000000000000000000000000000000000008152600401612078906137e4565b60405180910390fd5b50505050565b606060008214156120cf576040518060400160405280600181526020017f3000000000000000000000000000000000000000000000000000000000000000815250905061222f565b600082905060005b600082146121015780806120ea90613d3b565b915050600a826120fa9190613b63565b91506120d7565b60008167ffffffffffffffff811115612143577f4e487b7100000000000000000000000000000000000000000000000000000000600052604160045260246000fd5b6040519080825280601f01601f1916602001820160405280156121755781602001600182028036833780820191505090505b5090505b600085146122285760018261218e9190613bee565b9150600a8561219d9190613db2565b60306121a99190613b0d565b60f81b8183815181106121e5577f4e487b7100000000000000000000000000000000000000000000000000000000600052603260045260246000fd5b60200101907effffffffffffffffffffffffffffffffffffffffffffffffffffffffffffff1916908160001a905350600a856122219190613b63565b9450612179565b8093505050505b919050565b6060600082511415612257576040518060200160405280600081525090506123ce565b600060405180606001604052806040815260200161455560409139905060006003600285516122869190613b0d565b6122909190613b63565b600461229c9190613b94565b905060006020826122ad9190613b0d565b67ffffffffffffffff8111156122ec577f4e487b7100000000000000000000000000000000000000000000000000000000600052604160045260246000fd5b6040519080825280601f01601f19166020018201604052801561231e5781602001600182028036833780820191505090505b509050818152600183018586518101602084015b8183101561238d576003830192508251603f8160121c168501518253600182019150603f81600c1c168501518253600182019150603f8160061c168501518253600182019150603f8116850151825360018201915050612332565b6003895106600181146123a757600281146123b7576123c2565b613d3d60f01b60028303526123c2565b603d60f81b60018303525b50505050508093505050505b919050565b61246f848484846040516024016123ed9493929190613703565b6040516020818303038152906040527fd5cf17d0000000000000000000000000000000000000000000000000000000007bffffffffffffffffffffffffffffffffffffffffffffffffffffffff19166020820180517bffffffffffffffffffffffffffffffffffffffffffffffffffffffff8381831617835250505050612574565b50505050565b60008060054233600f546040516020016124919392919061356f565b6040516020818303038152906040528051906020012060001c6124b49190613db2565b9050600f60008154809291906124c990613d3b565b91905055508091505090565b61256f8383836040516024016124ed93929190613786565b6040516020818303038152906040527f969cdd03000000000000000000000000000000000000000000000000000000007bffffffffffffffffffffffffffffffffffffffffffffffffffffffff19166020820180517bffffffffffffffffffffffffffffffffffffffffffffffffffffffff8381831617835250505050612574565b505050565b60008151905060006a636f6e736f6c652e6c6f679050602083016000808483855afa5050505050565b505050565b6125ac8383612794565b6125b960008484846125fd565b6125f8576040517f08c379a00000000000000000000000000000000000000000000000000000000081526004016125ef906137e4565b60405180910390fd5b505050565b600061261e8473ffffffffffffffffffffffffffffffffffffffff16612962565b15612787578373ffffffffffffffffffffffffffffffffffffffff1663150b7a026126476119e5565b8786866040518563ffffffff1660e01b815260040161266994939291906135c7565b602060405180830381600087803b15801561268357600080fd5b505af19250505080156126b457506040513d601f19601f820116820180604052508101906126b19190612cef565b60015b612737573d80600081146126e4576040519150601f19603f3d011682016040523d82523d6000602084013e6126e9565b606091505b5060008151141561272f576040517f08c379a0000000000000000000000000000000000000000000000000000000008152600401612726906137e4565b60405180910390fd5b805181602001fd5b63150b7a0260e01b7bffffffffffffffffffffffffffffffffffffffffffffffffffffffff1916817bffffffffffffffffffffffffffffffffffffffffffffffffffffffff19161491505061278c565b600190505b949350505050565b600073ffffffffffffffffffffffffffffffffffffffff168273ffffffffffffffffffffffffffffffffffffffff161415612804576040517f08c379a00000000000000000000000000000000000000000000000000000000081526004016127fb90613904565b60405180910390fd5b61280d81611979565b1561284d576040517f08c379a000000000000000000000000000000000000000000000000000000000815260040161284490613804565b60405180910390fd5b6128596000838361259d565b6001600360008473ffffffffffffffffffffffffffffffffffffffff1673ffffffffffffffffffffffffffffffffffffffff16815260200190815260200160002060008282546128a99190613b0d565b92505081905550816002600083815260200190815260200160002060006101000a81548173ffffffffffffffffffffffffffffffffffffffff021916908373ffffffffffffffffffffffffffffffffffffffff160217905550808273ffffffffffffffffffffffffffffffffffffffff16600073ffffffffffffffffffffffffffffffffffffffff167fddf252ad1be2c89b69c2b068fc378daa952ba7f163c4a11628f55a4df523b3ef60405160405180910390a45050565b600080823b905060008111915050919050565b6040518060a0016040528060008152602001600081526020016000815260200160608152602001606081525090565b8280546129b090613cd8565b90600052602060002090601f0160209004810192826129d25760008555612a20565b82601f106129e35780548555612a20565b82800160010185558215612a2057600052602060002091601f016020900482015b82811115612a1f578254825591600101919060010190612a04565b5b509050612a2d9190612a31565b5090565b5b80821115612a4a576000816000905550600101612a32565b5090565b6000612a61612a5c84613a4f565b613a2a565b905082815260208101848484011115612a7957600080fd5b612a84848285613c96565b509392505050565b600081359050612a9b816144b5565b92915050565b600081359050612ab0816144cc565b92915050565b600081359050612ac5816144e3565b92915050565b600081519050612ada816144e3565b92915050565b600082601f830112612af157600080fd5b8135612b01848260208601612a4e565b91505092915050565b600081359050612b19816144fa565b92915050565b600060208284031215612b3157600080fd5b6000612b3f84828501612a8c565b91505092915050565b60008060408385031215612b5b57600080fd5b6000612b6985828601612a8c565b9250506020612b7a85828601612a8c565b9150509250929050565b600080600060608486031215612b9957600080fd5b6000612ba786828701612a8c565b9350506020612bb886828701612a8c565b9250506040612bc986828701612b0a565b9150509250925092565b60008060008060808587031215612be957600080fd5b6000612bf787828801612a8c565b9450506020612c0887828801612a8c565b9350506040612c1987828801612b0a565b925050606085013567ffffffffffffffff811115612c3657600080fd5b612c4287828801612ae0565b91505092959194509250565b60008060408385031215612c6157600080fd5b6000612c6f85828601612a8c565b9250506020612c8085828601612aa1565b9150509250929050565b60008060408385031215612c9d57600080fd5b6000612cab85828601612a8c565b9250506020612cbc85828601612b0a565b9150509250929050565b600060208284031215612cd857600080fd5b6000612ce684828501612ab6565b91505092915050565b600060208284031215612d0157600080fd5b6000612d0f84828501612acb565b91505092915050565b600060208284031215612d2a57600080fd5b6000612d3884828501612b0a565b91505092915050565b6000612d4d83836132af565b905092915050565b612d5e81613c22565b82525050565b612d75612d7082613c22565b613d84565b82525050565b6000612d8682613a90565b612d908185613abe565b935083602082028501612da285613a80565b8060005b85811015612dde5784840389528151612dbf8582612d41565b9450612dca83613ab1565b925060208a01995050600181019050612da6565b50829750879550505050505092915050565b612df981613c34565b82525050565b6000612e0a82613a9b565b612e148185613acf565b9350612e24818560208601613ca5565b612e2d81613e9f565b840191505092915050565b6000612e4382613aa6565b612e4d8185613ae0565b9350612e5d818560208601613ca5565b612e6681613e9f565b840191505092915050565b6000612e7c82613aa6565b612e868185613af1565b9350612e96818560208601613ca5565b612e9f81613e9f565b840191505092915050565b6000612eb582613aa6565b612ebf8185613b02565b9350612ecf818560208601613ca5565b80840191505092915050565b6000612ee8600283613b02565b9150612ef382613ebd565b600282019050919050565b6000612f0b601683613af1565b9150612f1682613ee6565b602082019050919050565b6000612f2e603283613af1565b9150612f3982613f0f565b604082019050919050565b6000612f51600283613b02565b9150612f5c82613f5e565b600282019050919050565b6000612f74601e83613b02565b9150612f7f82613f87565b601e82019050919050565b6000612f97601c83613af1565b9150612fa282613fb0565b602082019050919050565b6000612fba602483613af1565b9150612fc582613fd9565b604082019050919050565b6000612fdd601983613af1565b9150612fe882614028565b602082019050919050565b6000613000600883613b02565b915061300b82614051565b600882019050919050565b6000613023601483613af1565b915061302e8261407a565b602082019050919050565b6000613046602c83613af1565b9150613051826140a3565b604082019050919050565b6000613069601e83613b02565b9150613074826140f2565b601e82019050919050565b600061308c603883613af1565b91506130978261411b565b604082019050919050565b60006130af602a83613af1565b91506130ba8261416a565b604082019050919050565b60006130d2602983613af1565b91506130dd826141b9565b604082019050919050565b60006130f5600983613b02565b915061310082614208565b600982019050919050565b6000613118602083613b02565b915061312382614231565b602082019050919050565b600061313b602083613af1565b91506131468261425a565b602082019050919050565b600061315e600183613b02565b915061316982614283565b600182019050919050565b6000613181602c83613af1565b915061318c826142ac565b604082019050919050565b60006131a4602983613af1565b91506131af826142fb565b604082019050919050565b60006131c7600183613b02565b91506131d28261434a565b600182019050919050565b60006131ea600f83613b02565b91506131f582614373565b600f82019050919050565b600061320d600183613b02565b91506132188261439c565b600182019050919050565b6000613230602183613af1565b915061323b826143c5565b604082019050919050565b6000613253601d83613b02565b915061325e82614414565b601d82019050919050565b6000613276603183613af1565b91506132818261443d565b604082019050919050565b6000613299600a83613af1565b91506132a48261448c565b602082019050919050565b600060a0830160008301516132c760008601826133a9565b5060208301516132da60208601826133a9565b5060408301516132ed60408601826133a9565b50606083015184820360608601526133058282612e38565b9150506080830151848203608086015261331f8282612e38565b9150508091505092915050565b600060a08301600083015161334460008601826133a9565b50602083015161335760208601826133a9565b50604083015161336a60408601826133a9565b50606083015184820360608601526133828282612e38565b9150506080830151848203608086015261339c8282612e38565b9150508091505092915050565b6133b281613c8c565b82525050565b6133c181613c8c565b82525050565b6133d86133d382613c8c565b613da8565b82525050565b60006133e982612f67565b91506133f58284612eaa565b915061340082612edb565b915081905092915050565b600061341682612ff3565b91506134228284612eaa565b915061342d82612f44565b915081905092915050565b60006134438261305c565b915061344f8284612eaa565b915061345a82612edb565b915081905092915050565b6000613470826130e8565b915061347c8284612eaa565b915061348782612f44565b915081905092915050565b600061349d8261310b565b91506134a98284612eaa565b91506134b482613151565b915081905092915050565b60006134ca826131ba565b91506134d68286612eaa565b91506134e28285612eaa565b91506134ee8284612eaa565b91506134f982613151565b9150819050949350505050565b6000613511826131dd565b915061351d8286612eaa565b91506135298285612eaa565b91506135358284612eaa565b915061354082613200565b9150819050949350505050565b600061355882613246565b91506135648284612eaa565b915081905092915050565b600061357b82866133c7565b60208201915061358b8285612d64565b60148201915061359b82846133c7565b602082019150819050949350505050565b60006020820190506135c16000830184612d55565b92915050565b60006080820190506135dc6000830187612d55565b6135e96020830186612d55565b6135f660408301856133b8565b81810360608301526136088184612dff565b905095945050505050565b60006060820190506136286000830186612d55565b61363560208301856133b8565b61364260408301846133b8565b949350505050565b600060208201905081810360008301526136648184612d7b565b905092915050565b60006020820190506136816000830184612df0565b92915050565b600060208201905081810360008301526136a18184612e71565b905092915050565b600060808201905081810360008301526136c38187612e71565b905081810360208301526136d78186612e71565b90506136e660408301856133b8565b81810360608301526136f88184612e71565b905095945050505050565b6000608082019050818103600083015261371d8187612e71565b905081810360208301526137318186612e71565b905061374060408301856133b8565b61374d60608301846133b8565b95945050505050565b600060408201905081810360008301526137708185612e71565b905061377f60208301846133b8565b9392505050565b600060608201905081810360008301526137a08186612e71565b90506137af60208301856133b8565b6137bc60408301846133b8565b949350505050565b600060208201905081810360008301526137dd81612efe565b9050919050565b600060208201905081810360008301526137fd81612f21565b9050919050565b6000602082019050818103600083015261381d81612f8a565b9050919050565b6000602082019050818103600083015261383d81612fad565b9050919050565b6000602082019050818103600083015261385d81612fd0565b9050919050565b6000602082019050818103600083015261387d81613016565b9050919050565b6000602082019050818103600083015261389d81613039565b9050919050565b600060208201905081810360008301526138bd8161307f565b9050919050565b600060208201905081810360008301526138dd816130a2565b9050919050565b600060208201905081810360008301526138fd816130c5565b9050919050565b6000602082019050818103600083015261391d8161312e565b9050919050565b6000602082019050818103600083015261393d81613174565b9050919050565b6000602082019050818103600083015261395d81613197565b9050919050565b6000602082019050818103600083015261397d81613223565b9050919050565b6000602082019050818103600083015261399d81613269565b9050919050565b600060208201905081810360008301526139bd8161328c565b9050919050565b600060208201905081810360008301526139de818461332c565b905092915050565b60006020820190506139fb60008301846133b8565b92915050565b6000604082019050613a1660008301856133b8565b613a2360208301846133b8565b9392505050565b6000613a34613a45565b9050613a408282613d0a565b919050565b6000604051905090565b600067ffffffffffffffff821115613a6a57613a69613e70565b5b613a7382613e9f565b9050602081019050919050565b6000819050602082019050919050565b600081519050919050565b600081519050919050565b600081519050919050565b6000602082019050919050565b600082825260208201905092915050565b600082825260208201905092915050565b600082825260208201905092915050565b600082825260208201905092915050565b600081905092915050565b6000613b1882613c8c565b9150613b2383613c8c565b9250827fffffffffffffffffffffffffffffffffffffffffffffffffffffffffffffffff03821115613b5857613b57613de3565b5b828201905092915050565b6000613b6e82613c8c565b9150613b7983613c8c565b925082613b8957613b88613e12565b5b828204905092915050565b6000613b9f82613c8c565b9150613baa83613c8c565b9250817fffffffffffffffffffffffffffffffffffffffffffffffffffffffffffffffff0483118215151615613be357613be2613de3565b5b828202905092915050565b6000613bf982613c8c565b9150613c0483613c8c565b925082821015613c1757613c16613de3565b5b828203905092915050565b6000613c2d82613c6c565b9050919050565b60008115159050919050565b60007fffffffff0000000000000000000000000000000000000000000000000000000082169050919050565b600073ffffffffffffffffffffffffffffffffffffffff82169050919050565b6000819050919050565b82818337600083830152505050565b60005b83811015613cc3578082015181840152602081019050613ca8565b83811115613cd2576000848401525b50505050565b60006002820490506001821680613cf057607f821691505b60208210811415613d0457613d03613e41565b5b50919050565b613d1382613e9f565b810181811067ffffffffffffffff82111715613d3257613d31613e70565b5b80604052505050565b6000613d4682613c8c565b91507fffffffffffffffffffffffffffffffffffffffffffffffffffffffffffffffff821415613d7957613d78613de3565b5b600182019050919050565b6000613d8f82613d96565b9050919050565b6000613da182613eb0565b9050919050565b6000819050919050565b6000613dbd82613c8c565b9150613dc883613c8c565b925082613dd857613dd7613e12565b5b828206905092915050565b7f4e487b7100000000000000000000000000000000000000000000000000000000600052601160045260246000fd5b7f4e487b7100000000000000000000000000000000000000000000000000000000600052601260045260246000fd5b7f4e487b7100000000000000000000000000000000000000000000000000000000600052602260045260246000fd5b7f4e487b7100000000000000000000000000000000000000000000000000000000600052604160045260246000fd5b6000601f19601f8301169050919050565b60008160601b9050919050565b7f7d2c000000000000000000000000000000000000000000000000000000000000600082015250565b7f426f737320686173206265656e20646566656174656400000000000000000000600082015250565b7f4552433732313a207472616e7366657220746f206e6f6e20455243373231526560008201527f63656976657220696d706c656d656e7465720000000000000000000000000000602082015250565b7f222c000000000000000000000000000000000000000000000000000000000000600082015250565b7f7b202274726169745f74797065223a20224850222c202276616c7565223a0000600082015250565b7f4552433732313a20746f6b656e20616c7265616479206d696e74656400000000600082015250565b7f4552433732313a207472616e7366657220746f20746865207a65726f2061646460008201527f7265737300000000000000000000000000000000000000000000000000000000602082015250565b7f4552433732313a20617070726f766520746f2063616c6c657200000000000000600082015250565b7f226e616d65223a22000000000000000000000000000000000000000000000000600082015250565b7f546f6b656e20646f6573206e6f74206578697374000000000000000000000000600082015250565b7f4552433732313a206f70657261746f7220717565727920666f72206e6f6e657860008201527f697374656e7420746f6b656e0000000000000000000000000000000000000000602082015250565b7f7b202274726169745f74797065223a20225850222c202276616c7565223a0000600082015250565b7f4552433732313a20617070726f76652063616c6c6572206973206e6f74206f7760008201527f6e6572206e6f7220617070726f76656420666f7220616c6c0000000000000000602082015250565b7f4552433732313a2062616c616e636520717565727920666f7220746865207a6560008201527f726f206164647265737300000000000000000000000000000000000000000000602082015250565b7f4552433732313a206f776e657220717565727920666f72206e6f6e657869737460008201527f656e7420746f6b656e0000000000000000000000000000000000000000000000602082015250565b7f22696d616765223a220000000000000000000000000000000000000000000000600082015250565b7f7b202274726169745f74797065223a2022476f6c64222c202276616c7565223a600082015250565b7f4552433732313a206d696e7420746f20746865207a65726f2061646472657373600082015250565b7f7d00000000000000000000000000000000000000000000000000000000000000600082015250565b7f4552433732313a20617070726f76656420717565727920666f72206e6f6e657860008201527f697374656e7420746f6b656e0000000000000000000000000000000000000000602082015250565b7f4552433732313a207472616e73666572206f6620746f6b656e2074686174206960008201527f73206e6f74206f776e0000000000000000000000000000000000000000000000602082015250565b7f7b00000000000000000000000000000000000000000000000000000000000000600082015250565b7f2261747472696275746573223a205b0000000000000000000000000000000000600082015250565b7f5d00000000000000000000000000000000000000000000000000000000000000600082015250565b7f4552433732313a20617070726f76616c20746f2063757272656e74206f776e6560008201527f7200000000000000000000000000000000000000000000000000000000000000602082015250565b7f646174613a6170706c69636174696f6e2f6a736f6e3b6261736536342c000000600082015250565b7f4552433732313a207472616e736665722063616c6c6572206973206e6f74206f60008201527f776e6572206e6f7220617070726f766564000000000000000000000000000000602082015250565b7f506c617965722064656400000000000000000000000000000000000000000000600082015250565b6144be81613c22565b81146144c957600080fd5b50565b6144d581613c34565b81146144e057600080fd5b50565b6144ec81613c40565b81146144f757600080fd5b50565b61450381613c8c565b811461450e57600080fd5b5056fe506c6179657220617761726465642025732078702c20746f74616c207870202573506c61796572206465616c732025732064616d6167652e20426f73732048502025734142434445464748494a4b4c4d4e4f505152535455565758595a6162636465666768696a6b6c6d6e6f707172737475767778797a303132333435363738392b2f426f7373206465616c732025732064616d6167652e20506c617965722068703a2025730a0a25732061626f757420746f2061747461636b2e2048617320257320485020616e64202573205850a26469706673582212200eade9317c4cbfac1971039cb0c50d900c6a5ff3a89fc747e06925ea1909b47564736f6c634300080400334372656174656420636861726163746572202573207769746820687020257320616e6420696d616765202573",
  "linkReferences": {},
  "deployedLinkReferences": {}
}