{
  "_format": "hh-sol-artifact-1",
  "contractName": "Loot",
  "sourceName": "contracts/Loot.sol",
  "abi": [
    {
      "inputs": [],
      "stateMutability": "nonpayable",
      "type": "constructor"
    },
    {
      "anonymous": false,
      "inputs": [
        {
          "indexed": true,
          "internalType": "address",
          "name": "owner",
          "type": "address"
        },
        {
          "indexed": true,
          "internalType": "address",
          "name": "approved",
          "type": "address"
        },
        {
          "indexed": true,
          "internalType": "uint256",
          "name": "tokenId",
          "type": "uint256"
        }
      ],
      "name": "Approval",
      "type": "event"
    },
    {
      "anonymous": false,
      "inputs": [
        {
          "indexed": true,
          "internalType": "address",
          "name": "owner",
          "type": "address"
        },
        {
          "indexed": true,
          "internalType": "address",
          "name": "operator",
          "type": "address"
        },
        {
          "indexed": false,
          "internalType": "bool",
          "name": "approved",
          "type": "bool"
        }
      ],
      "name": "ApprovalForAll",
      "type": "event"
    },
    {
      "anonymous": false,
      "inputs": [
        {
          "indexed": true,
          "internalType": "address",
          "name": "from",
          "type": "address"
        },
        {
          "indexed": true,
          "internalType": "address",
          "name": "to",
          "type": "address"
        },
        {
          "indexed": true,
          "internalType": "uint256",
          "name": "tokenId",
          "type": "uint256"
        }
      ],
      "name": "Transfer",
      "type": "event"
    },
    {
      "inputs": [
        {
          "internalType": "address",
          "name": "to",
          "type": "address"
        },
        {
          "internalType": "uint256",
          "name": "tokenId",
          "type": "uint256"
        }
      ],
      "name": "approve",
      "outputs": [],
      "stateMutability": "nonpayable",
      "type": "function"
    },
    {
      "inputs": [
        {
          "internalType": "address",
          "name": "owner",
          "type": "address"
        }
      ],
      "name": "balanceOf",
      "outputs": [
        {
          "internalType": "uint256",
          "name": "",
          "type": "uint256"
        }
      ],
      "stateMutability": "view",
      "type": "function"
    },
    {
      "inputs": [
        {
          "internalType": "uint256",
          "name": "tokenId",
          "type": "uint256"
        }
      ],
      "name": "getApproved",
      "outputs": [
        {
          "internalType": "address",
          "name": "",
          "type": "address"
        }
      ],
      "stateMutability": "view",
      "type": "function"
    },
    {
      "inputs": [
        {
          "internalType": "address",
          "name": "owner",
          "type": "address"
        },
        {
          "internalType": "address",
          "name": "operator",
          "type": "address"
        }
      ],
      "name": "isApprovedForAll",
      "outputs": [
        {
          "internalType": "bool",
          "name": "",
          "type": "bool"
        }
      ],
      "stateMutability": "view",
      "type": "function"
    },
    {
      "inputs": [
        {
          "internalType": "uint256",
          "name": "tokenId",
          "type": "uint256"
        }
      ],
      "name": "mintLoot",
      "outputs": [],
      "stateMutability": "nonpayable",
      "type": "function"
    },
    {
      "inputs": [],
      "name": "name",
      "outputs": [
        {
          "internalType": "string",
          "name": "",
          "type": "string"
        }
      ],
      "stateMutability": "view",
      "type": "function"
    },
    {
      "inputs": [
        {
          "internalType": "uint256",
          "name": "tokenId",
          "type": "uint256"
        }
      ],
      "name": "ownerOf",
      "outputs": [
        {
          "internalType": "address",
          "name": "",
          "type": "address"
        }
      ],
      "stateMutability": "view",
      "type": "function"
    },
    {
      "inputs": [
        {
          "internalType": "address",
          "name": "from",
          "type": "address"
        },
        {
          "internalType": "address",
          "name": "to",
          "type": "address"
        },
        {
          "internalType": "uint256",
          "name": "tokenId",
          "type": "uint256"
        }
      ],
      "name": "safeTransferFrom",
      "outputs": [],
      "stateMutability": "nonpayable",
      "type": "function"
    },
    {
      "inputs": [
        {
          "internalType": "address",
          "name": "from",
          "type": "address"
        },
        {
          "internalType": "address",
          "name": "to",
          "type": "address"
        },
        {
          "internalType": "uint256",
          "name": "tokenId",
          "type": "uint256"
        },
        {
          "internalType": "bytes",
          "name": "_data",
          "type": "bytes"
        }
      ],
      "name": "safeTransferFrom",
      "outputs": [],
      "stateMutability": "nonpayable",
      "type": "function"
    },
    {
      "inputs": [
        {
          "internalType": "address",
          "name": "operator",
          "type": "address"
        },
        {
          "internalType": "bool",
          "name": "approved",
          "type": "bool"
        }
      ],
      "name": "setApprovalForAll",
      "outputs": [],
      "stateMutability": "nonpayable",
      "type": "function"
    },
    {
      "inputs": [
        {
          "internalType": "bytes4",
          "name": "interfaceId",
          "type": "bytes4"
        }
      ],
      "name": "supportsInterface",
      "outputs": [
        {
          "internalType": "bool",
          "name": "",
          "type": "bool"
        }
      ],
      "stateMutability": "view",
      "type": "function"
    },
    {
      "inputs": [],
      "name": "symbol",
      "outputs": [
        {
          "internalType": "string",
          "name": "",
          "type": "string"
        }
      ],
      "stateMutability": "view",
      "type": "function"
    },
    {
      "inputs": [
        {
          "internalType": "uint256",
          "name": "tokenId",
          "type": "uint256"
        }
      ],
      "name": "tokenURI",
      "outputs": [
        {
          "internalType": "string",
          "name": "",
          "type": "string"
        }
      ],
      "stateMutability": "view",
      "type": "function"
    },
    {
      "inputs": [
        {
          "internalType": "address",
          "name": "from",
          "type": "address"
        },
        {
          "internalType": "address",
          "name": "to",
          "type": "address"
        },
        {
          "internalType": "uint256",
          "name": "tokenId",
          "type": "uint256"
        }
      ],
      "name": "transferFrom",
      "outputs": [],
      "stateMutability": "nonpayable",
      "type": "function"
    }
  ],
  "bytecode": "0x608060405260405180610100016040528060dc81526020016200475d60dc9139600790805190602001906200003692919062000957565b506040518060400160405280600681526020017f3c2f7376673e0000000000000000000000000000000000000000000000000000815250600890805190602001906200008492919062000957565b50604051806103c001604052806040518060400160405280600781526020017f436c6f746865730000000000000000000000000000000000000000000000000081525081526020016040518060400160405280600d81526020017f4c6561746865722041726d6f720000000000000000000000000000000000000081525081526020016040518060400160405280600a81526020017f436861696e204d61696c0000000000000000000000000000000000000000000081525081526020016040518060400160405280600a81526020017f48616c6620506c6174650000000000000000000000000000000000000000000081525081526020016040518060400160405280600a81526020017f46756c6c20506c6174650000000000000000000000000000000000000000000081525081526020016040518060400160405280600b81526020017f4d616769632041726d6f7200000000000000000000000000000000000000000081525081526020016040518060400160405280600f81526020017f4572647269636b27732041726d6f72000000000000000000000000000000000081525081526020016040518060400160405280600e81526020017f4c65617468657220536869656c6400000000000000000000000000000000000081525081526020016040518060400160405280600c81526020017f536d616c6c20536869656c64000000000000000000000000000000000000000081525081526020016040518060400160405280600b81526020017f49726f6e20536869656c6400000000000000000000000000000000000000000081525081526020016040518060400160405280600c81526020017f4c6172676520536869656c64000000000000000000000000000000000000000081525081526020016040518060400160405280600d81526020017f53696c76657220536869656c640000000000000000000000000000000000000081525081526020016040518060400160405280600481526020017f486572620000000000000000000000000000000000000000000000000000000081525081526020016040518060400160405280600581526020017f57696e677300000000000000000000000000000000000000000000000000000081525081526020016040518060400160405280600581526020017f546f72636800000000000000000000000000000000000000000000000000000081525081526020016040518060400160405280600e81526020017f447261676f6e2773205363616c6500000000000000000000000000000000000081525081526020016040518060400160405280600b81526020017f466169727920576174657200000000000000000000000000000000000000000081525081526020016040518060400160405280600381526020017f4b6579000000000000000000000000000000000000000000000000000000000081525081526020016040518060400160405280600d81526020017f42616c6c206f66204c696768740000000000000000000000000000000000000081525081526020016040518060400160405280601081526020017f4572647269636b2773205461626c65740000000000000000000000000000000081525081526020016040518060400160405280600e81526020017f466169726965732720466c75746500000000000000000000000000000000000081525081526020016040518060400160405280600b81526020017f53696c766572204861727000000000000000000000000000000000000000000081525081526020016040518060400160405280600d81526020017f5374616666206f66205261696e0000000000000000000000000000000000000081525081526020016040518060400160405280601181526020017f53746f6e65206f662053756e6c6967687400000000000000000000000000000081525081526020016040518060400160405280600e81526020017f477761656c696e2773204c6f766500000000000000000000000000000000000081525081526020016040518060400160405280600f81526020017f4572647269636b277320546f6b656e000000000000000000000000000000000081525081526020016040518060400160405280600c81526020017f5261696e626f772044726f70000000000000000000000000000000000000000081525081526020016040518060400160405280600b81526020017f4375727365642042656c7400000000000000000000000000000000000000000081525081526020016040518060400160405280600e81526020017f4465617468204e65636b6c61636500000000000000000000000000000000000081525081526020016040518060400160405280600e81526020017f4669676874657227732052696e67000000000000000000000000000000000000815250815250600990601e6200078b929190620009e8565b503480156200079957600080fd5b506040518060400160405280600481526020017f4c6f6f74000000000000000000000000000000000000000000000000000000008152506040518060400160405280600481526020017f4c4f4f540000000000000000000000000000000000000000000000000000000081525081600090805190602001906200081e92919062000957565b5080600190805190602001906200083792919062000957565b505050620008856040518060400160405280600e81526020017f4465706c6f79696e67204c6f6f740000000000000000000000000000000000008152506200088b60201b62000f2b1760201c565b62000c09565b6200092b81604051602401620008a2919062000b1d565b6040516020818303038152906040527f41304fac000000000000000000000000000000000000000000000000000000007bffffffffffffffffffffffffffffffffffffffffffffffffffffffff19166020820180517bffffffffffffffffffffffffffffffffffffffffffffffffffffffff83818316178352505050506200092e60201b60201c565b50565b60008151905060006a636f6e736f6c652e6c6f679050602083016000808483855afa5050505050565b828054620009659062000b93565b90600052602060002090601f016020900481019282620009895760008555620009d5565b82601f10620009a457805160ff1916838001178555620009d5565b82800160010185558215620009d5579182015b82811115620009d4578251825591602001919060010190620009b7565b5b509050620009e4919062000a4f565b5090565b82805482825590600052602060002090810192821562000a3c579160200282015b8281111562000a3b57825182908051906020019062000a2a92919062000957565b509160200191906001019062000a09565b5b50905062000a4b919062000a6e565b5090565b5b8082111562000a6a57600081600090555060010162000a50565b5090565b5b8082111562000a92576000818162000a88919062000a96565b5060010162000a6f565b5090565b50805462000aa49062000b93565b6000825580601f1062000ab8575062000ad9565b601f01602090049060005260206000209081019062000ad8919062000a4f565b5b50565b600062000ae98262000b41565b62000af5818562000b4c565b935062000b0781856020860162000b5d565b62000b128162000bf8565b840191505092915050565b6000602082019050818103600083015262000b39818462000adc565b905092915050565b600081519050919050565b600082825260208201905092915050565b60005b8381101562000b7d57808201518184015260208101905062000b60565b8381111562000b8d576000848401525b50505050565b6000600282049050600182168062000bac57607f821691505b6020821081141562000bc35762000bc262000bc9565b5b50919050565b7f4e487b7100000000000000000000000000000000000000000000000000000000600052602260045260246000fd5b6000601f19601f8301169050919050565b613b448062000c196000396000f3fe608060405234801561001057600080fd5b50600436106100ea5760003560e01c806370a082311161008c578063a813fb2011610066578063a813fb201461025b578063b88d4fde14610277578063c87b56dd14610293578063e985e9c5146102c3576100ea565b806370a08231146101f157806395d89b4114610221578063a22cb4651461023f576100ea565b8063095ea7b3116100c8578063095ea7b31461016d57806323b872dd1461018957806342842e0e146101a55780636352211e146101c1576100ea565b806301ffc9a7146100ef57806306fdde031461011f578063081812fc1461013d575b600080fd5b610109600480360381019061010491906123fd565b6102f3565b6040516101169190612bff565b60405180910390f35b6101276103d5565b6040516101349190612c1a565b60405180910390f35b6101576004803603810190610152919061244f565b610467565b6040516101649190612b98565b60405180910390f35b610187600480360381019061018291906123c1565b6104ec565b005b6101a3600480360381019061019e91906122bb565b610604565b005b6101bf60048036038101906101ba91906122bb565b610664565b005b6101db60048036038101906101d6919061244f565b610684565b6040516101e89190612b98565b60405180910390f35b61020b60048036038101906102069190612256565b610736565b6040516102189190612e9a565b60405180910390f35b6102296107ee565b6040516102369190612c1a565b60405180910390f35b61025960048036038101906102549190612385565b610880565b005b6102756004803603810190610270919061244f565b610896565b005b610291600480360381019061028c919061230a565b610ce3565b005b6102ad60048036038101906102a8919061244f565b610d45565b6040516102ba9190612c1a565b60405180910390f35b6102dd60048036038101906102d8919061227f565b610e97565b6040516102ea9190612bff565b60405180910390f35b60007f80ac58cd000000000000000000000000000000000000000000000000000000007bffffffffffffffffffffffffffffffffffffffffffffffffffffffff1916827bffffffffffffffffffffffffffffffffffffffffffffffffffffffff191614806103be57507f5b5e139f000000000000000000000000000000000000000000000000000000007bffffffffffffffffffffffffffffffffffffffffffffffffffffffff1916827bffffffffffffffffffffffffffffffffffffffffffffffffffffffff1916145b806103ce57506103cd82610fc4565b5b9050919050565b6060600080546103e49061312e565b80601f01602080910402602001604051908101604052809291908181526020018280546104109061312e565b801561045d5780601f106104325761010080835404028352916020019161045d565b820191906000526020600020905b81548152906001019060200180831161044057829003601f168201915b5050505050905090565b60006104728261102e565b6104b1576040517f08c379a00000000000000000000000000000000000000000000000000000000081526004016104a890612dda565b60405180910390fd5b6004600083815260200190815260200160002060009054906101000a900473ffffffffffffffffffffffffffffffffffffffff169050919050565b60006104f782610684565b90508073ffffffffffffffffffffffffffffffffffffffff168373ffffffffffffffffffffffffffffffffffffffff161415610568576040517f08c379a000000000000000000000000000000000000000000000000000000000815260040161055f90612e3a565b60405180910390fd5b8073ffffffffffffffffffffffffffffffffffffffff1661058761109a565b73ffffffffffffffffffffffffffffffffffffffff1614806105b657506105b5816105b061109a565b610e97565b5b6105f5576040517f08c379a00000000000000000000000000000000000000000000000000000000081526004016105ec90612d1a565b60405180910390fd5b6105ff83836110a2565b505050565b61061561060f61109a565b8261115b565b610654576040517f08c379a000000000000000000000000000000000000000000000000000000000815260040161064b90612e5a565b60405180910390fd5b61065f838383611239565b505050565b61067f83838360405180602001604052806000815250610ce3565b505050565b6000806002600084815260200190815260200160002060009054906101000a900473ffffffffffffffffffffffffffffffffffffffff169050600073ffffffffffffffffffffffffffffffffffffffff168173ffffffffffffffffffffffffffffffffffffffff16141561072d576040517f08c379a000000000000000000000000000000000000000000000000000000000815260040161072490612d5a565b60405180910390fd5b80915050919050565b60008073ffffffffffffffffffffffffffffffffffffffff168273ffffffffffffffffffffffffffffffffffffffff1614156107a7576040517f08c379a000000000000000000000000000000000000000000000000000000000815260040161079e90612d3a565b60405180910390fd5b600360008373ffffffffffffffffffffffffffffffffffffffff1673ffffffffffffffffffffffffffffffffffffffff168152602001908152602001600020549050919050565b6060600180546107fd9061312e565b80601f01602080910402602001604051908101604052809291908181526020018280546108299061312e565b80156108765780601f1061084b57610100808354040283529160200191610876565b820191906000526020600020905b81548152906001019060200180831161085957829003601f168201915b5050505050905090565b61089261088b61109a565b8383611495565b5050565b600081101580156108a857506103e881105b6108e7576040517f08c379a00000000000000000000000000000000000000000000000000000000081526004016108de90612e7a565b60405180910390fd5b6108f13382611602565b6109316040518060400160405280601481526020017f4c6f6f74202573206d696e74656420746f2025730000000000000000000000008152508233611620565b6000610972826040518060400160405280600581526020017f46697273740000000000000000000000000000000000000000000000000000008152506116bf565b6040516020016109829190612ac2565b604051602081830303815290604052905060006109d4836040518060400160405280600681526020017f5365636f6e6400000000000000000000000000000000000000000000000000008152506116bf565b6040516020016109e49190612a95565b60405160208183030381529060405290506000610a36846040518060400160405280600581526020017f54686972640000000000000000000000000000000000000000000000000000008152506116bf565b604051602001610a469190612b11565b60405160208183030381529060405290506000610a98856040518060400160405280600681526020017f466f7572746800000000000000000000000000000000000000000000000000008152506116bf565b604051602001610aa89190612b6b565b60405160208183030381529060405290506000610afa866040518060400160405280600581526020017f46696674680000000000000000000000000000000000000000000000000000008152506116bf565b604051602001610b0a9190612b3e565b60405160208183030381529060405290506000600786868686866008604051602001610b3c97969594939291906129d6565b6040516020818303038152906040529050610b8b6040518060400160405280601581526020017f0a2d2d2d2d2d2d2d2d2d2d2d2d2d2d2d2d2d2d2d2d0000000000000000000000815250610f2b565b610b9481610f2b565b610bd26040518060400160405280601581526020017f2d2d2d2d2d2d2d2d2d2d2d2d2d2d2d2d2d2d2d2d0a0000000000000000000000815250610f2b565b6000610c04610be083611807565b604051602001610bf09190612a5d565b604051602081830303815290604052611807565b9050600081604051602001610c199190612aef565b6040516020818303038152906040529050610c686040518060400160405280601581526020017f0a2d2d2d2d2d2d2d2d2d2d2d2d2d2d2d2d2d2d2d2d0000000000000000000000815250610f2b565b610c9081604051602001610c7c9190612a3b565b604051602081830303815290604052610f2b565b610cce6040518060400160405280601581526020017f2d2d2d2d2d2d2d2d2d2d2d2d2d2d2d2d2d2d2d2d0a0000000000000000000000815250610f2b565b610cd889826119a6565b505050505050505050565b610cf4610cee61109a565b8361115b565b610d33576040517f08c379a0000000000000000000000000000000000000000000000000000000008152600401610d2a90612e5a565b60405180910390fd5b610d3f84848484611a1a565b50505050565b6060610d508261102e565b610d8f576040517f08c379a0000000000000000000000000000000000000000000000000000000008152600401610d8690612dba565b60405180910390fd5b6000600660008481526020019081526020016000208054610daf9061312e565b80601f0160208091040260200160405190810160405280929190818152602001828054610ddb9061312e565b8015610e285780601f10610dfd57610100808354040283529160200191610e28565b820191906000526020600020905b815481529060010190602001808311610e0b57829003601f168201915b505050505090506000610e39611a76565b9050600081511415610e4f578192505050610e92565b600082511115610e84578082604051602001610e6c9291906129b2565b60405160208183030381529060405292505050610e92565b610e8d84611a8d565b925050505b919050565b6000600560008473ffffffffffffffffffffffffffffffffffffffff1673ffffffffffffffffffffffffffffffffffffffff16815260200190815260200160002060008373ffffffffffffffffffffffffffffffffffffffff1673ffffffffffffffffffffffffffffffffffffffff16815260200190815260200160002060009054906101000a900460ff16905092915050565b610fc181604051602401610f3f9190612c1a565b6040516020818303038152906040527f41304fac000000000000000000000000000000000000000000000000000000007bffffffffffffffffffffffffffffffffffffffffffffffffffffffff19166020820180517bffffffffffffffffffffffffffffffffffffffffffffffffffffffff8381831617835250505050611b34565b50565b60007f01ffc9a7000000000000000000000000000000000000000000000000000000007bffffffffffffffffffffffffffffffffffffffffffffffffffffffff1916827bffffffffffffffffffffffffffffffffffffffffffffffffffffffff1916149050919050565b60008073ffffffffffffffffffffffffffffffffffffffff166002600084815260200190815260200160002060009054906101000a900473ffffffffffffffffffffffffffffffffffffffff1673ffffffffffffffffffffffffffffffffffffffff1614159050919050565b600033905090565b816004600083815260200190815260200160002060006101000a81548173ffffffffffffffffffffffffffffffffffffffff021916908373ffffffffffffffffffffffffffffffffffffffff160217905550808273ffffffffffffffffffffffffffffffffffffffff1661111583610684565b73ffffffffffffffffffffffffffffffffffffffff167f8c5be1e5ebec7d5bd14f71427d1e84f3dd0314c0f7b2291e5b200ac8c7c3b92560405160405180910390a45050565b60006111668261102e565b6111a5576040517f08c379a000000000000000000000000000000000000000000000000000000000815260040161119c90612cfa565b60405180910390fd5b60006111b083610684565b90508073ffffffffffffffffffffffffffffffffffffffff168473ffffffffffffffffffffffffffffffffffffffff16148061121f57508373ffffffffffffffffffffffffffffffffffffffff1661120784610467565b73ffffffffffffffffffffffffffffffffffffffff16145b80611230575061122f8185610e97565b5b91505092915050565b8273ffffffffffffffffffffffffffffffffffffffff1661125982610684565b73ffffffffffffffffffffffffffffffffffffffff16146112af576040517f08c379a00000000000000000000000000000000000000000000000000000000081526004016112a690612dfa565b60405180910390fd5b600073ffffffffffffffffffffffffffffffffffffffff168273ffffffffffffffffffffffffffffffffffffffff16141561131f576040517f08c379a000000000000000000000000000000000000000000000000000000000815260040161131690612cba565b60405180910390fd5b61132a838383611b5d565b6113356000826110a2565b6001600360008573ffffffffffffffffffffffffffffffffffffffff1673ffffffffffffffffffffffffffffffffffffffff16815260200190815260200160002060008282546113859190613044565b925050819055506001600360008473ffffffffffffffffffffffffffffffffffffffff1673ffffffffffffffffffffffffffffffffffffffff16815260200190815260200160002060008282546113dc9190612f63565b92505081905550816002600083815260200190815260200160002060006101000a81548173ffffffffffffffffffffffffffffffffffffffff021916908373ffffffffffffffffffffffffffffffffffffffff160217905550808273ffffffffffffffffffffffffffffffffffffffff168473ffffffffffffffffffffffffffffffffffffffff167fddf252ad1be2c89b69c2b068fc378daa952ba7f163c4a11628f55a4df523b3ef60405160405180910390a4505050565b8173ffffffffffffffffffffffffffffffffffffffff168373ffffffffffffffffffffffffffffffffffffffff161415611504576040517f08c379a00000000000000000000000000000000000000000000000000000000081526004016114fb90612cda565b60405180910390fd5b80600560008573ffffffffffffffffffffffffffffffffffffffff1673ffffffffffffffffffffffffffffffffffffffff16815260200190815260200160002060008473ffffffffffffffffffffffffffffffffffffffff1673ffffffffffffffffffffffffffffffffffffffff16815260200190815260200160002060006101000a81548160ff0219169083151502179055508173ffffffffffffffffffffffffffffffffffffffff168373ffffffffffffffffffffffffffffffffffffffff167f17307eab39ab6107e8899845ad3d59bd9653f200f220920489ca2b5937696c31836040516115f59190612bff565b60405180910390a3505050565b61161c828260405180602001604052806000815250611b62565b5050565b6116ba83838360405160240161163893929190612c3c565b6040516020818303038152906040527fe3849f79000000000000000000000000000000000000000000000000000000007bffffffffffffffffffffffffffffffffffffffffffffffffffffffff19166020820180517bffffffffffffffffffffffffffffffffffffffffffffffffffffffff8381831617835250505050611b34565b505050565b60606000826116cd85611bbd565b6040516020016116de9291906129b2565b6040516020818303038152906040529050600081604051602001611702919061299b565b6040516020818303038152906040528051906020012060001c90506009805490508161172e91906131da565b90506009818154811061176a577f4e487b7100000000000000000000000000000000000000000000000000000000600052603260045260246000fd5b90600052602060002001805461177f9061312e565b80601f01602080910402602001604051908101604052809291908181526020018280546117ab9061312e565b80156117f85780601f106117cd576101008083540402835291602001916117f8565b820191906000526020600020905b8154815290600101906020018083116117db57829003601f168201915b50505050509250505092915050565b606060008251141561182a576040518060200160405280600081525090506119a1565b6000604051806060016040528060408152602001613acf60409139905060006003600285516118599190612f63565b6118639190612fb9565b600461186f9190612fea565b905060006020826118809190612f63565b67ffffffffffffffff8111156118bf577f4e487b7100000000000000000000000000000000000000000000000000000000600052604160045260246000fd5b6040519080825280601f01601f1916602001820160405280156118f15781602001600182028036833780820191505090505b509050818152600183018586518101602084015b81831015611960576003830192508251603f8160121c168501518253600182019150603f81600c1c168501518253600182019150603f8160061c168501518253600182019150603f8116850151825360018201915050611905565b60038951066001811461197a576002811461198a57611995565b613d3d60f01b6002830352611995565b603d60f81b60018303525b50505050508093505050505b919050565b6119af8261102e565b6119ee576040517f08c379a00000000000000000000000000000000000000000000000000000000081526004016119e590612d7a565b60405180910390fd5b80600660008481526020019081526020016000209080519060200190611a159291906120e2565b505050565b611a25848484611239565b611a3184848484611d6a565b611a70576040517f08c379a0000000000000000000000000000000000000000000000000000000008152600401611a6790612c7a565b60405180910390fd5b50505050565b606060405180602001604052806000815250905090565b6060611a988261102e565b611ad7576040517f08c379a0000000000000000000000000000000000000000000000000000000008152600401611ace90612e1a565b60405180910390fd5b6000611ae1611a76565b90506000815111611b015760405180602001604052806000815250611b2c565b80611b0b84611bbd565b604051602001611b1c9291906129b2565b6040516020818303038152906040525b915050919050565b60008151905060006a636f6e736f6c652e6c6f679050602083016000808483855afa5050505050565b505050565b611b6c8383611f01565b611b796000848484611d6a565b611bb8576040517f08c379a0000000000000000000000000000000000000000000000000000000008152600401611baf90612c7a565b60405180910390fd5b505050565b60606000821415611c05576040518060400160405280600181526020017f30000000000000000000000000000000000000000000000000000000000000008152509050611d65565b600082905060005b60008214611c37578080611c2090613191565b915050600a82611c309190612fb9565b9150611c0d565b60008167ffffffffffffffff811115611c79577f4e487b7100000000000000000000000000000000000000000000000000000000600052604160045260246000fd5b6040519080825280601f01601f191660200182016040528015611cab5781602001600182028036833780820191505090505b5090505b60008514611d5e57600182611cc49190613044565b9150600a85611cd391906131da565b6030611cdf9190612f63565b60f81b818381518110611d1b577f4e487b7100000000000000000000000000000000000000000000000000000000600052603260045260246000fd5b60200101907effffffffffffffffffffffffffffffffffffffffffffffffffffffffffffff1916908160001a905350600a85611d579190612fb9565b9450611caf565b8093505050505b919050565b6000611d8b8473ffffffffffffffffffffffffffffffffffffffff166120cf565b15611ef4578373ffffffffffffffffffffffffffffffffffffffff1663150b7a02611db461109a565b8786866040518563ffffffff1660e01b8152600401611dd69493929190612bb3565b602060405180830381600087803b158015611df057600080fd5b505af1925050508015611e2157506040513d601f19601f82011682018060405250810190611e1e9190612426565b60015b611ea4573d8060008114611e51576040519150601f19603f3d011682016040523d82523d6000602084013e611e56565b606091505b50600081511415611e9c576040517f08c379a0000000000000000000000000000000000000000000000000000000008152600401611e9390612c7a565b60405180910390fd5b805181602001fd5b63150b7a0260e01b7bffffffffffffffffffffffffffffffffffffffffffffffffffffffff1916817bffffffffffffffffffffffffffffffffffffffffffffffffffffffff191614915050611ef9565b600190505b949350505050565b600073ffffffffffffffffffffffffffffffffffffffff168273ffffffffffffffffffffffffffffffffffffffff161415611f71576040517f08c379a0000000000000000000000000000000000000000000000000000000008152600401611f6890612d9a565b60405180910390fd5b611f7a8161102e565b15611fba576040517f08c379a0000000000000000000000000000000000000000000000000000000008152600401611fb190612c9a565b60405180910390fd5b611fc660008383611b5d565b6001600360008473ffffffffffffffffffffffffffffffffffffffff1673ffffffffffffffffffffffffffffffffffffffff16815260200190815260200160002060008282546120169190612f63565b92505081905550816002600083815260200190815260200160002060006101000a81548173ffffffffffffffffffffffffffffffffffffffff021916908373ffffffffffffffffffffffffffffffffffffffff160217905550808273ffffffffffffffffffffffffffffffffffffffff16600073ffffffffffffffffffffffffffffffffffffffff167fddf252ad1be2c89b69c2b068fc378daa952ba7f163c4a11628f55a4df523b3ef60405160405180910390a45050565b600080823b905060008111915050919050565b8280546120ee9061312e565b90600052602060002090601f0160209004810192826121105760008555612157565b82601f1061212957805160ff1916838001178555612157565b82800160010185558215612157579182015b8281111561215657825182559160200191906001019061213b565b5b5090506121649190612168565b5090565b5b80821115612181576000816000905550600101612169565b5090565b600061219861219384612eda565b612eb5565b9050828152602081018484840111156121b057600080fd5b6121bb8482856130ec565b509392505050565b6000813590506121d281613a72565b92915050565b6000813590506121e781613a89565b92915050565b6000813590506121fc81613aa0565b92915050565b60008151905061221181613aa0565b92915050565b600082601f83011261222857600080fd5b8135612238848260208601612185565b91505092915050565b60008135905061225081613ab7565b92915050565b60006020828403121561226857600080fd5b6000612276848285016121c3565b91505092915050565b6000806040838503121561229257600080fd5b60006122a0858286016121c3565b92505060206122b1858286016121c3565b9150509250929050565b6000806000606084860312156122d057600080fd5b60006122de868287016121c3565b93505060206122ef868287016121c3565b925050604061230086828701612241565b9150509250925092565b6000806000806080858703121561232057600080fd5b600061232e878288016121c3565b945050602061233f878288016121c3565b935050604061235087828801612241565b925050606085013567ffffffffffffffff81111561236d57600080fd5b61237987828801612217565b91505092959194509250565b6000806040838503121561239857600080fd5b60006123a6858286016121c3565b92505060206123b7858286016121d8565b9150509250929050565b600080604083850312156123d457600080fd5b60006123e2858286016121c3565b92505060206123f385828601612241565b9150509250929050565b60006020828403121561240f57600080fd5b600061241d848285016121ed565b91505092915050565b60006020828403121561243857600080fd5b600061244684828501612202565b91505092915050565b60006020828403121561246157600080fd5b600061246f84828501612241565b91505092915050565b61248181613078565b82525050565b6124908161308a565b82525050565b60006124a182612f20565b6124ab8185612f36565b93506124bb8185602086016130fb565b6124c4816132c7565b840191505092915050565b60006124da82612f2b565b6124e48185612f47565b93506124f48185602086016130fb565b6124fd816132c7565b840191505092915050565b600061251382612f2b565b61251d8185612f58565b935061252d8185602086016130fb565b80840191505092915050565b600081546125468161312e565b6125508186612f58565b9450600182166000811461256b576001811461257c576125af565b60ff198316865281860193506125af565b61258585612f0b565b60005b838110156125a757815481890152600182019150602081019050612588565b838801955050505b50505092915050565b60006125c5602583612f58565b91506125d0826132d8565b602582019050919050565b60006125e8603283612f47565b91506125f382613327565b604082019050919050565b600061260b601c83612f47565b915061261682613376565b602082019050919050565b600061262e602483612f47565b91506126398261339f565b604082019050919050565b6000612651601983612f47565b915061265c826133ee565b602082019050919050565b6000612674601083612f58565b915061267f82613417565b601082019050919050565b6000612697602c83612f47565b91506126a282613440565b604082019050919050565b60006126ba603883612f58565b91506126c58261348f565b603882019050919050565b60006126dd603883612f58565b91506126e8826134de565b603882019050919050565b6000612700603883612f47565b915061270b8261352d565b604082019050919050565b6000612723602a83612f47565b915061272e8261357c565b604082019050919050565b6000612746602983612f47565b9150612751826135cb565b604082019050919050565b6000612769602e83612f47565b91506127748261361a565b604082019050919050565b600061278c600283612f58565b915061279782613669565b600282019050919050565b60006127af600783612f58565b91506127ba82613692565b600782019050919050565b60006127d2602083612f47565b91506127dd826136bb565b602082019050919050565b60006127f5603183612f47565b9150612800826136e4565b604082019050919050565b6000612818602c83612f47565b915061282382613733565b604082019050919050565b600061283b602983612f47565b915061284682613782565b604082019050919050565b600061285e602f83612f47565b9150612869826137d1565b604082019050919050565b6000612881602183612f47565b915061288c82613820565b604082019050919050565b60006128a4601d83612f58565b91506128af8261386f565b601d82019050919050565b60006128c7603883612f58565b91506128d282613898565b603882019050919050565b60006128ea605383612f58565b91506128f5826138e7565b605382019050919050565b600061290d603183612f47565b91506129188261395c565b604082019050919050565b6000612930600c83612f47565b915061293b826139ab565b602082019050919050565b6000612953603883612f58565b915061295e826139d4565b603882019050919050565b6000612976603883612f58565b915061298182613a23565b603882019050919050565b612995816130e2565b82525050565b60006129a78284612508565b915081905092915050565b60006129be8285612508565b91506129ca8284612508565b91508190509392505050565b60006129e2828a612539565b91506129ee8289612508565b91506129fa8288612508565b9150612a068287612508565b9150612a128286612508565b9150612a1e8285612508565b9150612a2a8284612539565b915081905098975050505050505050565b6000612a46826125b8565b9150612a528284612508565b915081905092915050565b6000612a6882612667565b9150612a73826128dd565b9150612a7f8284612508565b9150612a8a8261277f565b915081905092915050565b6000612aa0826126ad565b9150612aac8284612508565b9150612ab7826127a2565b915081905092915050565b6000612acd826126d0565b9150612ad98284612508565b9150612ae4826127a2565b915081905092915050565b6000612afa82612897565b9150612b068284612508565b915081905092915050565b6000612b1c826128ba565b9150612b288284612508565b9150612b33826127a2565b915081905092915050565b6000612b4982612946565b9150612b558284612508565b9150612b60826127a2565b915081905092915050565b6000612b7682612969565b9150612b828284612508565b9150612b8d826127a2565b915081905092915050565b6000602082019050612bad6000830184612478565b92915050565b6000608082019050612bc86000830187612478565b612bd56020830186612478565b612be2604083018561298c565b8181036060830152612bf48184612496565b905095945050505050565b6000602082019050612c146000830184612487565b92915050565b60006020820190508181036000830152612c3481846124cf565b905092915050565b60006060820190508181036000830152612c5681866124cf565b9050612c65602083018561298c565b612c726040830184612478565b949350505050565b60006020820190508181036000830152612c93816125db565b9050919050565b60006020820190508181036000830152612cb3816125fe565b9050919050565b60006020820190508181036000830152612cd381612621565b9050919050565b60006020820190508181036000830152612cf381612644565b9050919050565b60006020820190508181036000830152612d138161268a565b9050919050565b60006020820190508181036000830152612d33816126f3565b9050919050565b60006020820190508181036000830152612d5381612716565b9050919050565b60006020820190508181036000830152612d7381612739565b9050919050565b60006020820190508181036000830152612d938161275c565b9050919050565b60006020820190508181036000830152612db3816127c5565b9050919050565b60006020820190508181036000830152612dd3816127e8565b9050919050565b60006020820190508181036000830152612df38161280b565b9050919050565b60006020820190508181036000830152612e138161282e565b9050919050565b60006020820190508181036000830152612e3381612851565b9050919050565b60006020820190508181036000830152612e5381612874565b9050919050565b60006020820190508181036000830152612e7381612900565b9050919050565b60006020820190508181036000830152612e9381612923565b9050919050565b6000602082019050612eaf600083018461298c565b92915050565b6000612ebf612ed0565b9050612ecb8282613160565b919050565b6000604051905090565b600067ffffffffffffffff821115612ef557612ef4613298565b5b612efe826132c7565b9050602081019050919050565b60008190508160005260206000209050919050565b600081519050919050565b600081519050919050565b600082825260208201905092915050565b600082825260208201905092915050565b600081905092915050565b6000612f6e826130e2565b9150612f79836130e2565b9250827fffffffffffffffffffffffffffffffffffffffffffffffffffffffffffffffff03821115612fae57612fad61320b565b5b828201905092915050565b6000612fc4826130e2565b9150612fcf836130e2565b925082612fdf57612fde61323a565b5b828204905092915050565b6000612ff5826130e2565b9150613000836130e2565b9250817fffffffffffffffffffffffffffffffffffffffffffffffffffffffffffffffff04831182151516156130395761303861320b565b5b828202905092915050565b600061304f826130e2565b915061305a836130e2565b92508282101561306d5761306c61320b565b5b828203905092915050565b6000613083826130c2565b9050919050565b60008115159050919050565b60007fffffffff0000000000000000000000000000000000000000000000000000000082169050919050565b600073ffffffffffffffffffffffffffffffffffffffff82169050919050565b6000819050919050565b82818337600083830152505050565b60005b838110156131195780820151818401526020810190506130fe565b83811115613128576000848401525b50505050565b6000600282049050600182168061314657607f821691505b6020821081141561315a57613159613269565b5b50919050565b613169826132c7565b810181811067ffffffffffffffff8211171561318857613187613298565b5b80604052505050565b600061319c826130e2565b91507fffffffffffffffffffffffffffffffffffffffffffffffffffffffffffffffff8214156131cf576131ce61320b565b5b600182019050919050565b60006131e5826130e2565b91506131f0836130e2565b925082613200576131ff61323a565b5b828206905092915050565b7f4e487b7100000000000000000000000000000000000000000000000000000000600052601160045260246000fd5b7f4e487b7100000000000000000000000000000000000000000000000000000000600052601260045260246000fd5b7f4e487b7100000000000000000000000000000000000000000000000000000000600052602260045260246000fd5b7f4e487b7100000000000000000000000000000000000000000000000000000000600052604160045260246000fd5b6000601f19601f8301169050919050565b7f68747470733a2f2f6e6674707265766965772e30786465762e636f6465732f3f60008201527f636f64653d000000000000000000000000000000000000000000000000000000602082015250565b7f4552433732313a207472616e7366657220746f206e6f6e20455243373231526560008201527f63656976657220696d706c656d656e7465720000000000000000000000000000602082015250565b7f4552433732313a20746f6b656e20616c7265616479206d696e74656400000000600082015250565b7f4552433732313a207472616e7366657220746f20746865207a65726f2061646460008201527f7265737300000000000000000000000000000000000000000000000000000000602082015250565b7f4552433732313a20617070726f766520746f2063616c6c657200000000000000600082015250565b7f7b226e616d65223a20224c6f6f74222c00000000000000000000000000000000600082015250565b7f4552433732313a206f70657261746f7220717565727920666f72206e6f6e657860008201527f697374656e7420746f6b656e0000000000000000000000000000000000000000602082015250565b7f3c7465787420783d273530252720793d273330252720636c6173733d2762617360008201527f652720746578742d616e63686f723d276d6964646c65273e0000000000000000602082015250565b7f3c7465787420783d273530252720793d273130252720636c6173733d2762617360008201527f652720746578742d616e63686f723d276d6964646c65273e0000000000000000602082015250565b7f4552433732313a20617070726f76652063616c6c6572206973206e6f74206f7760008201527f6e6572206e6f7220617070726f76656420666f7220616c6c0000000000000000602082015250565b7f4552433732313a2062616c616e636520717565727920666f7220746865207a6560008201527f726f206164647265737300000000000000000000000000000000000000000000602082015250565b7f4552433732313a206f776e657220717565727920666f72206e6f6e657869737460008201527f656e7420746f6b656e0000000000000000000000000000000000000000000000602082015250565b7f45524337323155524953746f726167653a2055524920736574206f66206e6f6e60008201527f6578697374656e7420746f6b656e000000000000000000000000000000000000602082015250565b7f227d000000000000000000000000000000000000000000000000000000000000600082015250565b7f3c2f746578743e00000000000000000000000000000000000000000000000000600082015250565b7f4552433732313a206d696e7420746f20746865207a65726f2061646472657373600082015250565b7f45524337323155524953746f726167653a2055524920717565727920666f722060008201527f6e6f6e6578697374656e7420746f6b656e000000000000000000000000000000602082015250565b7f4552433732313a20617070726f76656420717565727920666f72206e6f6e657860008201527f697374656e7420746f6b656e0000000000000000000000000000000000000000602082015250565b7f4552433732313a207472616e73666572206f6620746f6b656e2074686174206960008201527f73206e6f74206f776e0000000000000000000000000000000000000000000000602082015250565b7f4552433732314d657461646174613a2055524920717565727920666f72206e6f60008201527f6e6578697374656e7420746f6b656e0000000000000000000000000000000000602082015250565b7f4552433732313a20617070726f76616c20746f2063757272656e74206f776e6560008201527f7200000000000000000000000000000000000000000000000000000000000000602082015250565b7f646174613a6170706c69636174696f6e2f6a736f6e3b6261736536342c000000600082015250565b7f3c7465787420783d273530252720793d273530252720636c6173733d2762617360008201527f652720746578742d616e63686f723d276d6964646c65273e0000000000000000602082015250565b7f226465736372697074696f6e223a20224120736c696d65206472617773206e6560008201527f61722120436f6d6d616e643f222c2022696d616765223a2022646174613a696d60208201527f6167652f7376672b786d6c3b6261736536342c00000000000000000000000000604082015250565b7f4552433732313a207472616e736665722063616c6c6572206973206e6f74206f60008201527f776e6572206e6f7220617070726f766564000000000000000000000000000000602082015250565b7f4f7574206f662072616e67650000000000000000000000000000000000000000600082015250565b7f3c7465787420783d273530252720793d273930252720636c6173733d2762617360008201527f652720746578742d616e63686f723d276d6964646c65273e0000000000000000602082015250565b7f3c7465787420783d273530252720793d273730252720636c6173733d2762617360008201527f652720746578742d616e63686f723d276d6964646c65273e0000000000000000602082015250565b613a7b81613078565b8114613a8657600080fd5b50565b613a928161308a565b8114613a9d57600080fd5b50565b613aa981613096565b8114613ab457600080fd5b50565b613ac0816130e2565b8114613acb57600080fd5b5056fe4142434445464748494a4b4c4d4e4f505152535455565758595a6162636465666768696a6b6c6d6e6f707172737475767778797a303132333435363738392b2fa26469706673582212206953b4f9c91c14e3f6a99d2e907794b4062f4f338bc494131955e36fb9ca517764736f6c634300080400333c73766720786d6c6e733d27687474703a2f2f7777772e77332e6f72672f323030302f73766727207072657365727665417370656374526174696f3d27784d696e594d696e206d656574272076696577426f783d273020302033353020333530273e3c7374796c653e2e62617365207b2066696c6c3a2077686974653b20666f6e742d66616d696c793a2073657269663b20666f6e742d73697a653a20313470783b207d3c2f7374796c653e3c726563742077696474683d273130302527206865696768743d2731303025272066696c6c3d27626c61636b27202f3e",
  "linkReferences": {},
  "deployedLinkReferences": {}
}